:020000040800F2
:1000000000500020E5030008E1030008DD030008BC
:10001000DD030008DD030008DD0300080000000028
:10002000000000000000000000000000E1030008E4
:10003000E103000800000000E10300081D4D000876
:10004000DD030008DD030008DD030008DD03000810
:10005000DD030008DD030008DD030008DD03000800
:10006000DD030008DD030008DD030008DD030008F0
:10007000DD030008DD030008DD030008DD030008E0
:10008000DD030008DD030008DD030008DD030008D0
:100090006D410008DD030008DD030008DD030008F2
:1000A000DD030008DD030008DD030008DD030008B0
:1000B000A13E0008DD030008DD030008DD030008A1
:1000C000DD030008DD030008DD030008DD03000890
:1000D000DD030008DD030008DD030008DD03000880
:1000E000DD030008DD03000859410008DD030008B6
:1000F000DD030008DD030008DD030008DD03000860
:10010000DD030008DD030008DD030008DD0300084F
:10011000DD030008DD030008DD030008DD0300083F
:10012000DD030008DD030008DD030008DD0300082F
:10013000DD030008DD030008DD030008DD0300081F
:10014000DD030008DD030008DD030008DD0300080F
:10015000FEE700BF08B5FFF7FBFF00BF094A0A4BE7
:10016000116841F0807111601A6812F0007206D1B6
:10017000064901200A601A6802431A60704700208D
:10018000704700BFFCED00E0001000E0041000E04C
:10019000034B186810F0010018BF5868704700BF83
:1001A000001000E000F01F03012202FA03F34009EF
:1001B000800000F1604000F561400360704700BFBF
:1001C00000F01F0301229A40024B400943F820200F
:1001D000704700BF80E100E000F01F03012202FA37
:1001E00003F34009800000F1604000F562400268BE
:1001F0001A420CBF00200120704700BF00F01F030F
:10020000012202FA03F34009800000F1604000F58A
:1002100062400360704700BF00F01F0301229A4054
:10022000024B400943F82020704700BF80E200E005
:1002300000F01F03012202FA03F34009800000F1DD
:10024000604000F5614002681A420CBF00200120A6
:10025000704700BF432805D800F1604000F56440B6
:1002600001707047024B00F00F00C154704700BF8F
:1002700014ED00E000F01F03012202FA03F340092D
:10028000800000F1604000F5634002681A420CBF34
:1002900000200120704700BFEF2803D8024B1A68E6
:1002A00010431860704700BF00EF00E0014B024AA6
:1002B0001A60FEE70CED00E00100FA05014B024A6E
:1002C0001A60FEE70CED00E00400FA0540F0BF60A4
:1002D000024B40F400301860704700BF0CED00E0A6
:1002E000024B20F07F401860704700BF14E000E030
:1002F000024B186820F07F40704700BF14E000E018
:100300000D4BB1FBF0F1994214D80C4B99420C4BB8
:100310000AD81A6842F004021A600A4B013921F027
:100320007F411960012070471A68C90822F0040251
:100330001A60F2E700207047F7FFFF07FEFFFF009B
:1003400010E000E014E000E0024B186820F07F406D
:10035000704700BF18E000E0044B00F004001A688A
:1003600022F0040210431860704700BF10E000E064
:10037000024B1A6842F002021A60704710E000E077
:10038000024B1A6822F002021A60704710E000E087
:10039000024B1A6842F001021A60704710E000E058
:1003A000024B1A6822F001021A60704710E000E068
:1003B000024B1868C0F30040704700BF10E000E037
:1003C000014B00221A60704718E000E0024B1868E9
:1003D00020F07F40704700BF1CE000E0FEE700BF58
:1003E000704700BF224A234B9A420ED2D5431D4488
:1003F00025F00305204B0435EC18114653F8040B87
:10040000A34241F8040BF9D12A441C4B9A420DD265
:10041000D81C131DC01A20F0030004301044002122
:1004200001E01A46043383421160FAD1144B154C93
:100430001A68154D42F40072AC421A6004D254F8A6
:10044000043B9847AC42FAD3104C114DAC4204D255
:1004500054F8043B9847AC42FAD30E4D0E4C04F0CE
:100460000FFCAC4204D254F8043B9847AC42FAD398
:100470000000002038010020349F00085C080020A4
:1004800014ED00E02C9F00082C9F00082C9F000812
:100490002C9F00082C9F00082C9F0008836823F0E5
:1004A00001038360704700BF436843F40003436067
:1004B000704700BF436823F400034360704700BFE8
:1004C000436843F480034360704700BF436823F4EC
:1004D00080034360704700BF082908DC4368013986
:1004E00043F400634360436843EA4131416070472D
:1004F000436823F400634360704700BF436843F4DC
:1005000080534360704700BF436823F480534360C7
:10051000704700BF10B5044601F094FD636843F4D2
:100520008063636010BD00BF436823F48063436051
:10053000704700BF436823F400734360704700BFF7
:100540004368112923F01F0398BF0B43436043689E
:1005500043F4007343607047436843F4807343601F
:10056000704700BF436823F480734360704700BF47
:10057000436843F080034360704700BF436823F043
:1005800080034360704700BF436843F0400343600B
:10059000704700BF436823F040034360704700BFCB
:1005A000436843F020034360704700BF436823F073
:1005B00020034360704700BF836843F40063836097
:1005C000704700BF836823F400638360704700BFF7
:1005D0000068C0F3400070470068C0F380007047B7
:1005E000C06C7047013903290BD8DFE801F0080619
:1005F0000402806C7047406C7047006C7047C06BA1
:1006000070470020704700BF836843F00203836097
:10061000704700BF836823F002038360704700BF08
:10062000C1F30B0141627047C1F30B018162704756
:1006300010292DE9F00F24D831B30024A046A1469B
:10064000A2466FF03B060123E5B203F1010C062B35
:10065000A5F106075FFA8CF3A5F10C0518D9052F53
:1006600024D9052D1DD9994204F1010406F105068E
:10067000EAD201394AEA0151C162C0F83090C0F8AB
:100680003480BDE8F00F7047884689468A46F0E717
:1006900012F804B004EB840C0BFA0CFC48EA0C08CA
:1006A000DDE7155DB5404AEA050ADCE712F804C04B
:1006B00006F11E070CFA07F749EA0709D1E700BF60
:1006C000042970B415DCB1B14E1EF3B2C3EB8375CF
:1006D000C3EB85050A440A350F23002112F8014DAA
:1006E0009C40053BAB4241EA0401F7D141EA065187
:1006F000816370BC70474FF0FF36F7E7013903297B
:1007000004D8DFE801F00806040202627047C26103
:100710007047826170474261704700BF836800F193
:10072000080243F48003836013685B02FCD47047C3
:10073000836800F1080243F40013836013689B028E
:10074000FCD47047836843F480738360704700BFB4
:10075000836823F480738360704700BF013910B44D
:100760008B000F249C400B4400EB830300229A6013
:10077000DA601A615A6143681C4344605DF8044BB7
:10078000704700BF013989008A404260704700BF4E
:10079000013989008A4003681A420CBF00200120F9
:1007A000704700BF013901EB8101890008304358CF
:1007B00043F480434350435823F020034350704791
:1007C000013901EB810189000830435823F440537B
:1007D000435043581A434250704700BF013901EB60
:1007E000810189000830435823F440634350435843
:1007F0001A434250704700BF013901EB8101890063
:100800000830435823F44073435043581A4342502E
:10081000704700BF013901EB81018900083043585E
:1008200043F0800343507047013901EB8101890097
:100830000830435823F0800343507047013901EBDF
:10084000810189000830435843F04003435070470A
:10085000013901EB810189000830435823F040033E
:1008600043507047013901EB81018900083043583A
:1008700043F020034350435823F4804343507047D0
:10088000013901EB810189000830435823F010033E
:1008900043507047013901EB81018900083043580A
:1008A00043F0100343507047013901EB8101890087
:1008B0000830435843F0080343507047013901EBB7
:1008C000810189000830435823F0080343507047E2
:1008D000013901EB810189000830435843F00403DA
:1008E00043507047013901EB8101890008304358BA
:1008F00023F0040343507047013901EB8101890063
:100900000830435843F0020343507047013901EB6C
:10091000810189000830435823F002034350704797
:10092000013901EB810189000830435843F001038C
:1009300043507047013901EB810189000830435869
:1009400023F0010343507047013901EB810100EBB3
:1009500081008368DB0758BF02617047013901EBF2
:10096000810100EB81008368DB0758BF426170475B
:10097000013901EB810189000C304250704700BF02
:10098000024B1A6842F010021A60704700200240C1
:10099000024B1A6822F010021A60704700200240D1
:1009A000034B1A6822F0070210431860704700BF1B
:1009B0000020024010B4064A064B14680648074956
:1009C00044F080041460186019605DF8044B7047AF
:1009D000102002400420024023016745AB89EFCD7F
:1009E000024B1A6842F080021A60704710200240E1
:1009F000024B1A6842F004021A6070470C20024051
:100A0000024B1A6842F020021A6070470C20024024
:100A1000024B1A6842F010021A6070470C20024024
:100A2000024B1A6822F001021A6070470C20024043
:100A300008B501F013FCC307FBD408BD38B50C465C
:100A4000054689B201F01EFCA81C210CBDE8384007
:100A500001F018BC024B0349034A19601A60704741
:100A60000820024023016745AB89EFCD08B501F0AE
:100A7000F5FBC107FBD40E4B1B689A0504D40D4B44
:100A80000D490E4A19601A60094B1A6842F020029B
:100A90001A601A6842F040021A6001F0DFFBC307D7
:100AA000FBD4034B1A6822F020021A6008BD00BF75
:100AB000102002400820024023016745AB89EFCD9A
:100AC00038B504460D4601F0C9FBC107FBD40C4BF9
:100AD0001B689A0504D40B4B0B490C4A19601A6029
:100AE000074B1A6842F010021A60258001F0B6FB2D
:100AF000C307FBD4024B1A6822F010021A6038BDFB
:100B0000102002400820024023016745AB89EFCD49
:100B10000161704709040161704700BF80680840A7
:100B2000704700BFC36821EA03020B4042EA034357
:100B300003617047806880B2704700BFC160704732
:100B400041F4803383618161836183698369704784
:100B50000368194301607047036823EA01010160DB
:100B6000704700BF0368194301607047036823EAB8
:100B700001010160704700BF00F01F03012202FA6B
:100B800003F3400900F1804000F50430026813438C
:100B90000360704700F01F03012202FA03F34009CB
:100BA00000F1804000F50430026822EA030303608C
:100BB000704700BF00F01F03012202FA03F340094F
:100BC00000F1804000F5043002681A4302600268B8
:100BD00022EA03030360704700F01F03012202FAB8
:100BE00003F3400900F1804000F50430026813432C
:100BF0000360704700F01F03012202FA03F340096B
:100C000000F1804000F50430026822EA030303602B
:100C1000704700BF034B1A6822F0706242EA00601E
:100C20001860704704100240024B41F080011960C7
:100C3000704700BF4C5C00403E2A12D9104BD006D2
:100C4000186818BF203A80B26FEA825200EBC101E7
:100C500003F56F736FEA5242490092B20B441A6077
:100C600070470748D307006848BF013280B2054B80
:100C700000EBC1019202490092B20B441A60704726
:100C8000505C00400C6000402DE9F04F01F07F0AFD
:100C90004FEA8A0707F1804707F5B8473C680D46D9
:100CA00024F4E0444E4924F07F0483B044EA0A046B
:100CB000804608684968A6B26C4603C43E6038683E
:100CC00004EB420232F8082C20F4EC4020F07000D3
:100CD000104325F07F0580B29946386005F0FF0289
:100CE000DDF830B0002D3FD1BAF1000F3CD0B8F89C
:100CF00018104FEACA033B483B4A04684046A4B276
:100D000023445B001A44116051464A46FFF794FFA2
:100D1000BBF1000F05D00AEB4A0A08EB8A0ACAF8B1
:100D20006CB03A684CF68F7313403B603B681024FC
:100D300023F4804323F070039BB2012103E011F4FC
:100D4000405F18BF4B404900013C89B2F7D143F4E2
:100D5000004343F080033B60B8F818309944A8F88A
:100D6000189003B0BDE8F08F1E494FEACA03096826
:100D7000B8F8180089B21944490001F1804101F521
:100D8000C0410860BBF1000F05D00AEB4A0108EB37
:100D90008101C1F868B0386848F6CF710140396008
:100DA0003E68102526F4E04626F04006B6B201243F
:100DB00002E0A10648BF66406400013DA4B2F8D13C
:100DC00046F4004646F080063E60B8F818104944E4
:100DD00089B2A8F81810002A8DD003B0BDE8F08FB2
:100DE00034960008505C00400860004010B40F4B7F
:100DF0000F4C196840F63F720A4042F4004242F03C
:100E000080021A60196843F60F720A4042F40042E9
:100E100042F0800243F8042BA342EAD103685DF854
:100E2000044BDB7920335B0003837047045C004094
:100E3000205C004070B400293CD1364B10201E6865
:100E4000012326F4E04626F04006B6B2002A14BF7D
:100E5000102520251D4218BF5E405C000138A3B25A
:100E6000F4D146F400462B4B46F080061E60890004
:100E700001F1804606F5B846002A45D035681021B4
:100E800025F4804525F07005ADB20123002A0CBF82
:100E90004FF440544FF480541C4218BF5D4058003A
:100EA000013983B2F2D145F4004545F08005356043
:100EB00070BC70470B06DAD501F07F06B60006F16C
:100EC000804606F5B8463568102125F4E04525F042
:100ED0004005ADB20123002A14BF102420241C4277
:100EE00018BF5D405800013983B2F4D145F4004584
:100EF00045F080053560002ADAD1326848F6CF73B4
:100F00001340336070BC704731684CF68F730B40F0
:100F10003360B3E7005C004008060CD4890001F19F
:100F2000804101F5B841086800F44050B0F58053A5
:100F300058425841704701F07F01890001F180411A
:100F400001F5B841086800F03000B0F110025042DD
:100F5000504170470B061DD41A4B5A54890001F1B9
:100F6000804000F5B8400168AAB121F4804121F029
:100F70007001102289B2012303E013F4005F18BF4F
:100F800059405B00013A9BB2F7D141F4004141F076
:100F900080010160704721F4804121F0700110222E
:100FA00089B2012303E013F4405F18BF59405B008E
:100FB000013A9BB2F7D141F4004141F08001016058
:100FC000E8E700BF70020020F8B501F07F018E0055
:100FD00006F1804606F5B84634681F4604F0300432
:100FE000302C32D01A4DCC002B6811469BB22344D2
:100FF0005B0003F1804303F5C04318883A46400084
:1010000000F1804000F5C04002F008F82A68114B5A
:1010100092B21444640023441F603568102425F400
:10102000E04525F04005ADB2012103E011F0300F9D
:1010300018BF4D404900013C89B2F7D145F4004545
:1010400045F0800535603846F8BD0020F8BD00BF8A
:10105000505C004004600040F8B58E0006F1804608
:1010600006F5B8460C4631681F4601F44051B1F50B
:10107000405F4AD0264DE1002868264B80B20844E4
:10108000400003441B88C3F30903BB4208DA286805
:10109000204B80B20844400003441F68C7F309078F
:1010A0001B481D4B05681046AAB2114449000B4469
:1010B00019883A46490001F1804101F5C04101F02B
:1010C000C1FF326840F60F73134043F08003134AA8
:1010D0003360135DBBB93568102425F4804525F0D5
:1010E0007005ADB2012103E011F4405F18BF4D401F
:1010F0004900013C89B2F7D145F4004545F080052F
:1011000035603846F8BD3846F8BD0020F8BD00BF50
:10111000505C00400C6000400860004070020020FD
:10112000F8B5374B054619688CB2660542D40804F9
:1011300024D4210506D5324B4FF2FF721A602B6A78
:1011400003B19847E20406D52D4B4EF6FF721A60A4
:101150006B6A03B19847A30507D5294B4FF6FF5299
:101160001A60AB6A002B39D09847AB6A002B35D098
:10117000244B1A6842F400721A60F8BD01F00F01A6
:1011800014F010034FEA81001DD100F1804202F5F6
:10119000B842176840F60F763E4046F400461660A7
:1011A00001EB410213441A3355F82330E3B12846CA
:1011B0009847BEE74FF6FF31402219600283BDE831
:1011C000F84001F091BF00F1804303F5B8431B687C
:1011D00013F4006F0CBF01230223E1E7094B1A68E7
:1011E00022F400721A60F8BD00F1804000F5B840AA
:1011F000026840F60F73134043F08003036098E7E2
:10120000445C0040405C0040204B984237D00ED9EF
:101210001F4B98422FD01ED91E4B984217D003F572
:10122000006398422FD140F28D10FFF7C3BCA3F5A5
:101230000063984217D003F58063984203D0B0F161
:10124000804F14D0704740F20220FFF7B3BC40F249
:101250008B10FFF7AFBCA3F58063984214D14FF415
:101260000170FFF7A7BC40F20120FFF7A3BC4FF4C9
:101270000070FFF79FBC40F20520FFF79BBC40F2D7
:101280000320FFF797BC7047704700BF000C004079
:1012900000140040002C0140C3681943C16070472E
:1012A000C36823EA0101C160704700BF0269C368D7
:1012B00013400B4011D0802904D805D0202903D039
:1012C0000120704700207047054B9842F8D003F585
:1012D0000063C31A5842584170471846704700BF10
:1012E000002C014003690B420CBF00200120704715
:1012F000C9430161704700BF10B40468134324F46C
:101300005C74194341EA040303605DF8044B7047C1
:10131000036801F4407123F44073036003681943C8
:1013200001607047036843F080030360704700BFAB
:10133000036823F080030360704700BF036801F077
:10134000600123F060030360036819430160704784
:10135000036823F010030360704700BF036843F085
:1013600010030360704700BF036843F00803036085
:10137000704700BF036823F008030360704700BF95
:10138000036823F004030360704700BF036843F061
:1013900004030360704700BF036823F00203036087
:1013A000704700BF036843F002030360704700BF4B
:1013B000036843F001030360704700BF036823F034
:1013C00001030360704700BF064B984204D003F549
:1013D0000063984200D07047436801F4FE4119430E
:1013E00041607047002C0140074B984204D003F540
:1013F0000063984200D07047436801F4FE4123EA3D
:1014000001014160704700BF002C0140436843F078
:1014100080034360704700BF436823F0800343604C
:10142000704700BF436823F070034360436819436B
:1014300041607047436823F008034360704700BF72
:10144000436843F008034360704700BF064B98426F
:1014500004D003F50063984200D07047436843F01E
:1014600004034360704700BF002C0140064B9842C4
:1014700004D003F50063984200D07047436823F01E
:1014800004034360704700BF002C0140064B9842A4
:1014900004D003F50063984200D07047436843F0DE
:1014A00001034360704700BF002C0140064B984287
:1014B00004D003F50063984200D07047436823F0DE
:1014C00001034360704700BF002C014081627047F8
:1014D000044B984204D003F50063984200D0704753
:1014E00001637047002C0140C1627047062909D88A
:1014F000DFE801F013080E0809080400C36943F48B
:101500000043C3617047C36943F08003C361704700
:10151000836943F4004383617047836943F0800328
:1015200083617047062909D8DFE801F013080E0827
:1015300009080400C36923F40043C3617047C36909
:1015400023F08003C3617047836923F40043836100
:101550007047836923F0800383617047062909D8A7
:10156000DFE801F013080E0809080400C36943F41A
:101570008063C3617047C36943F00403C36170476C
:10158000836943F4806383617047836943F0040394
:1015900083617047062909D8DFE801F013080E08B7
:1015A00009080400C36923F48063C3617047C369F9
:1015B00023F00403C3617047836923F4806383616C
:1015C0007047836923F0040383617047062909D8B3
:1015D000DFE801F050081F0809083100C36943F42F
:1015E000E043C3617047C36923F00303C361C36968
:1015F000C361C36923F07003C361072AF2D8DFE82F
:1016000012F04E00D300A100B00097009C009200A1
:10161000AB00836923F440738361836983618369C9
:1016200023F4E0438361072ADCD8DFE802F0357752
:101630003B40454A4F54C36923F44073C361C369B7
:10164000C361C36923F4E043C361072ACAD801A375
:1016500053F822F09F160008E1160008EB16000868
:10166000F5160008FF1600080917000813170008F0
:10167000DD150008836923F00303836183698361B7
:10168000836923F070038361072AABD8DFE802F097
:10169000046E73787D82875F836983617047C36955
:1016A000C3617047836943F4005383617047836962
:1016B00043F4405383617047836943F480438361FB
:1016C0007047836943F4A04383617047836943F49F
:1016D000C04383617047836943F4E043836170478B
:1016E000C36943F48053C3617047C36943F4005333
:1016F000C3617047C36943F44053C3617047C36912
:1017000043F48043C3617047C36943F4A043C3619A
:101710007047C36943F4C043C3617047836943F4AE
:10172000805383617047C36943F06003C3617047AE
:10173000C36943F04003C3617047C36943F050037A
:10174000C3617047C36943F02003C3617047836975
:1017500043F0700383617047C36943F07003C36152
:101760007047C36943F03003C3617047836943F036
:10177000100383617047836943F0200383617047DE
:10178000836943F0300383617047836943F040030A
:1017900083617047836943F05003836170478369B5
:1017A00043F0600383617047C36943F01003C36172
:1017B000704700BF062909D8DFE801F013080E08BA
:1017C00009080400C36943F40063C3617047C36937
:1017D00043F00803C3617047836943F40063836186
:1017E0007047836943F0080383617047062909D86D
:1017F000DFE801F013080E0809080400C36923F4A8
:101800000063C3617047C36923F00803C361704775
:10181000836923F4006383617047836923F00803BD
:1018200083617047062909D8DFE801F02508200800
:101830001B080400036A23F400530362154B98420B
:1018400004D003F50063984200D07047032917D0F5
:1018500005291AD00129F8D1036A23F0080303628D
:101860007047036A23F400730362E7E7036A23F017
:1018700020030362E2E7036A23F002030362DDE769
:10188000036A23F0800303627047036A23F4006352
:1018900003627047002C0140062909D8DFE801F0F7
:1018A000250820081B080400036A43F40053036260
:1018B000154B984204D003F50063984200D070475E
:1018C000032917D005291AD00129F8D1036A43F05A
:1018D000080303627047036A43F400730362E7E797
:1018E000036A43F020030362E2E7036A43F0020362
:1018F0000362DDE7036A43F0800303627047036A13
:1019000043F4006303627047002C0140062909D8A4
:10191000DFE801F0250820081B080400036A43F4EF
:1019200080530362154B984204D003F5006398423C
:1019300000D07047032917D005291AD00129F8D102
:10194000036A43F0040303627047036A43F480733D
:101950000362E7E7036A43F010030362E2E7036A06
:1019600043F001030362DDE7036A43F040030362CF
:101970007047036A43F4806303627047002C0140A0
:10198000062909D8DFE801F0250820081B08040013
:10199000036A23F480530362154B984204D003F585
:1019A0000063984200D07047032917D005291AD048
:1019B0000129F8D1036A23F0040303627047036A24
:1019C00023F480730362E7E7036A23F010030362E2
:1019D000E2E7036A23F001030362DDE7036A23F011
:1019E000400303627047036A23F480630362704715
:1019F000002C0140194B984204D003F50063984233
:101A000000D070470629FCD8DFE801F0090E131852
:101A10001D220400436843F480434360F1E74368B8
:101A200043F4807343607047436843F4007343603A
:101A30007047436843F4806343607047436843F4EE
:101A4000006343607047436843F4805343607047CA
:101A5000436843F400534360704700BF002C0140CB
:101A6000194B984204D003F50063984200D07047A8
:101A70000629FCD8DFE801F0090E13181D22040026
:101A8000436823F480434360F1E7436823F48073A1
:101A900043607047436823F40073436070474368B2
:101AA00023F4806343607047436823F4006343601A
:101AB0007047436823F4805343607047436823F4BE
:101AC00000534360704700BF002C0140062906D830
:101AD000DFE801F00A050805060504000264704706
:101AE000C26370478263704742637047064B9842F7
:101AF00004D003F50063984200D07047436C43F470
:101B000000434364704700BF002C0140064B9842DD
:101B100004D003F50063984200D07047436C23F46F
:101B200000434364704700BF002C0140064B9842BD
:101B300004D003F50063984200D07047436C43F42F
:101B400080434364704700BF002C0140064B98421D
:101B500004D003F50063984200D07047436C23F42F
:101B600080434364704700BF002C0140064B9842FD
:101B700004D003F50063984200D07047436C43F4EF
:101B800000534364704700BF002C0140064B98424D
:101B900004D003F50063984200D07047436C23F4EF
:101BA00000534364704700BF002C0140064B98422D
:101BB00004D003F50063984200D07047436C43F4AF
:101BC00080534364704700BF002C0140064B98428D
:101BD00004D003F50063984200D07047436C23F4AF
:101BE00080534364704700BF002C0140064B98426D
:101BF00004D003F50063984200D07047436C43F46F
:101C000000634364704700BF002C0140064B9842BC
:101C100004D003F50063984200D07047436C23F46E
:101C200000634364704700BF002C0140064B98429C
:101C300004D003F50063984200D07047436C43F42E
:101C400080634364704700BF002C0140064B9842FC
:101C500004D003F50063984200D07047436C23F42E
:101C600080634364704700BF002C0140054B9842DD
:101C700004D003F50063984200D07047436C1943C9
:101C800041647047002C0140054B984204D003F595
:101C90000063984200D07047436C19434164704719
:101CA000002C01404369194341617047406A704705
:101CB0004162704703290BD8DFE801F01D140B02C5
:101CC000C36923F47043C361C36943EA0232C2614A
:101CD0007047C36923F0F003C361C36943EA02128A
:101CE000C2617047836923F470438361836943EA67
:101CF000023282617047836923F0F0038361836954
:101D000043EA02128261704703290BD8DFE801F031
:101D10001D140B02C36923F44063C361C36943EA22
:101D20008222C2617047C36923F00C03C361C36997
:101D300043EA8202C2617047836923F4406383618E
:101D4000836943EA822282617047836923F00C032E
:101D50008361836943EA82028261704701F0FD0377
:101D6000012B02F0030204D1531E012B98BF82F015
:101D7000030203290BD8DFE801F01C130B02C3692F
:101D800023F44073C361C36943EA0222C26170470E
:101D9000C36923F00303C361C3691A43C261704777
:101DA000836923F440738361836943EA0222826179
:101DB0007047836923F00303836183691A43826157
:101DC000704700BF0123890003FA01F1036A194338
:101DD000016270470123890003FA01F1036A23EAD3
:101DE00001010162704700BF836823F47063836060
:101DF000836843EA01218160704700BF836823F450
:101E000040538360836843EA01318160704700BFBB
:101E1000836819B923F400438360704743F4004397
:101E200083607047836823F00703836083681943E6
:101E300081607047836823F070038360836819436F
:101E400081607047064A074B90421B6804BF064BEF
:101E50001B6801EB43034900B3FBF1F38360704758
:101E6000003801400400002008000020C368082951
:101E70000CBF23F4805343F48053C360704700BF0A
:101E8000036923F44053194301617047C36823F485
:101E9000C0631943C1607047C36823F00C03194342
:101EA000C1607047436923F440731943416170472F
:101EB000C36843F40053C360704700BFC36823F492
:101EC0000053C360704700BF38B50C46054600F0AC
:101ED00055F828462146BDE8384000F047B800BF15
:101EE00010B5044600F04EF82046BDE8104000F062
:101EF00041B800BF436943F040034361704700BFEE
:101F0000436923F040034361704700BF436943F0D6
:101F100080034361704700BF436923F0800343613E
:101F2000704700BFC36843F02003C360704700BF21
:101F3000C36823F02003C360704700BFC36843F049
:101F40008003C360704700BFC36823F08003C36091
:101F5000704700BF436943F001034361704700BF0E
:101F6000436923F001034361704700BFC1F30801D7
:101F7000416070474068C0F30800704703681B0663
:101F8000FCD5704703689B06FCD5704703680B427D
:101F90000CBF0020012070470268A1F11003702BD4
:101FA00002EA010208D9082901D0002070474AB18D
:101FB0004069C0F380207047C36813420CBF002003
:101FC00001207047104670478368DB0703D483689D
:101FD00043F00103836070478368DB0703D58368A0
:101FE00043F0010383607047024B1A681043186086
:101FF000704700BF04240140836843F400038360FA
:10200000704700BF836823F400038360704700BFFC
:10201000836823F4602319438160836843F4801349
:1020200083607047836823F480138360704700BF28
:10203000836823F4E04319438160836843F40043D9
:1020400083607047836823F400438360704700BF58
:10205000836800F1080243F00803836013681B07DC
:10206000FCD47047836800F1080243F004038360E6
:1020700013685B07FCD47047836843F001038360F7
:10208000704700BF092910B40DD90A3901EB41018D
:1020900007248C408A40C36823EA04011143C160CD
:1020A0005DF8044B704701EB410107248C408A40E6
:1020B000036923EA0401114301615DF8044B704791
:1020C00010B400231A4601FA03F403331E2B42EA2C
:1020D0000402F8D10261002301FA03F40333182B40
:1020E00042EA0402F8D1C2605DF8044B704700BFB9
:1020F000024B1A6842F008021A6070470020024042
:10210000024B1A6822F008021A6070470020024051
:1021100010B4094B1B889BB2B3F5007F09D9074A5D
:10212000074B14680748084944F08004146018609D
:1021300019605DF8044B7047E0F7FF1F5020024024
:102140004420024023016745AB89EFCD024B1A685A
:1021500042F080021A60704750200240054B1B88F5
:102160009BB2B3F5007F04D9034B1A6842F0040216
:102170001A607047E0F7FF1F4C200240054B1B8898
:102180009BB2B3F5007F04D9034B1A6842F02002DA
:102190001A607047E0F7FF1F4C200240054B1B8878
:1021A0009BB2B3F5007F04D9034B1A6842F01002CA
:1021B0001A607047E0F7FF1F4C200240054B1B8858
:1021C0009BB2B3F5007F04D9034B1A6822F00102D9
:1021D0001A607047E0F7FF1F4C20024008B5FEF779
:1021E00007FCFEF70DFCFEF713FCFEF719FC194B7C
:1021F0001A8892B2B2F5007F2AD91B889BB2B3F538
:10220000007F04D9144B1A6842F004021A60114B83
:102210001B889BB2B3F5007F04D90F4B1A6842F0BC
:1022200020021A600B4B1B889BB2B3F5007F04D9C8
:10223000094B1A6842F010021A60064B1B889BB2C9
:10224000B3F5007F04D9044B1A6822F001021A602A
:1022500008BD00BFE0F7FF1F4C200240064A074BB5
:1022600010681B889BB2B3F5007F82BF044B1B68CC
:10227000184300F0350070470C200240E0F7FF1FC4
:102280004C20024070B5204C05460E46FEF7D0FBB0
:1022900023889BB2B3F5007F15D91C4B9D4228D9EA
:1022A0001B4B1A6842F001021A602E80FEF7C0FB39
:1022B00023889BB2B3F5007F15D9154B1A6822F01D
:1022C00001021A6070BD134B1A6842F001021A60D5
:1022D0002E80FEF7ADFB23889BB2B3F5007F02D9B9
:1022E0000A4B9D42E9D80B4B1A6822F001021A6092
:1022F00070BD084B1A6842F001021A602E80FEF78A
:1023000097FB2388EFE700BFE0F7FF1FFFFF0708F9
:10231000502002401020024038B5274C0546FEF7F9
:1023200087FB23889BB2B3F5007F1AD9234B9D42CC
:1023300032D9234B234A196841F002011960156014
:102340001A6842F040021A60FEF772FB23889BB2C3
:10235000B3F5007F1AD91A4B1A6822F002021A60EC
:1023600038BD194B194A196841F00201196015600E
:102370001A6842F040021A60FEF75AFB23889BB2AB
:10238000B3F5007F02D90D4B9D42E4D80E4B1A687D
:1023900022F002021A6038BD0B4B0C4A196841F05A
:1023A0000201196015601A6842F040021A60FEF7D7
:1023B0003FFB2388EAE700BFE0F7FF1FFFFF0708A6
:1023C00050200240542002401020024014200240BD
:1023D00038B5104DFEF72CFB2B680F4C43F004036F
:1023E0002B602B6843F040032B60FEF721FB2B682A
:1023F00023F004032B60236843F004032360236865
:1024000043F040032360FEF713FB236823F004032B
:10241000236038BD10200240502002402DE9F00F0B
:102420008046D0F800C00225406800244FF00F0914
:1024300010E009FA0AFB01FA0AF702FA05F62CEA9B
:102440000B0C47EA060A4CEA0A0C0134102C05F181
:1024500004051ED043FA04F6F607A7B2F5D5A5F198
:102460002206B6B2072F4FEA840A06F1020BE0D922
:1024700001FA06F702FA0BFB09FA06F601344BEAF9
:10248000070B20EA0600102C4BEA000005F10405BA
:10249000E0D1C8F800C0C8F80400BDE8F00F7047EC
:1024A0000143024B41F08001196070470000014078
:1024B000034B1A6822F0E06211430843186070472A
:1024C00004000140024B1A6810431860704700BFB7
:1024D0001C000140024B1A6842F080721A6070477B
:1024E0000010024006280AD8DFE800F00A10161C87
:1024F00022280400144B1A6842F480321A60704794
:10250000114B1A6842F480121A6070470E4B1A6819
:1025100042F400121A6070470B4B1A6842F48002B2
:102520001A607047084B1A6842F400221A6070471C
:10253000054B1A6842F480221A607047024B1A68F1
:1025400042F400321A6070470810024006280AD888
:10255000DFE800F00A10161C22280400144B1A6849
:1025600042F480721A607047114B1A6842F480522C
:102570001A6070470E4B1A6842F400521A60704796
:102580000B4B1A6842F480421A607047084B1A6875
:1025900042F400621A607047054B1A6842F4806288
:1025A0001A607047024B1A6842F400721A60704752
:1025B0000810024006280AD8DFE800F00A10161CAE
:1025C00022280400144B1A6822F480721A607047A3
:1025D000114B1A6822F480521A6070470E4B1A6829
:1025E00022F400521A6070470B4B1A6822F48042A2
:1025F0001A607047084B1A6822F400621A6070472C
:10260000054B1A6822F480621A607047024B1A6800
:1026100022F400721A6070470810024008B50628BC
:1026200028D8DFE800F0090E13181D220400124B11
:10263000186800F0010008BD0F4B1868C0F30010C7
:1026400008BD0D4B1868C0F3401008BD0A4B186850
:10265000C0F3801008BD084B1868C0F3C00008BD67
:10266000054B1868C0F3800008BD034B1868C0F321
:10267000400008BDFDF76CFD08100240024B1A68CF
:1026800042F400021A60704708100240024B1868BA
:10269000C0F3C010704700BF08100240062809D8D8
:1026A000DFE800F0090E131D18220400114A136818
:1026B0009B07FCD57047104A13689B01FCD57047F7
:1026C0000D4A13681801FCD570470B4A136899002E
:1026D000FCD57047084A13689807FCD57047064A2E
:1026E00013689B03FCD57047044A13689907FCD50F
:1026F000704700BF2410024000100240201002402A
:1027000006280AD8DFE800F00A0B11171D23040081
:10271000124B1A6842F001021A607047DAE6104B59
:102720001A6842F080621A6070470D4B1A6842F0D6
:1027300080521A6070470A4B1A6842F480321A605D
:102740007047074B1A6842F001021A607047054B48
:102750001A6842F001021A60704700BF241002405C
:10276000001002402010024006280AD8DFE800F0DE
:102770000A10161C22280400144B1A6822F00102C9
:102780001A607047124B1A6822F080721A60704704
:102790000F4B1A6822F080621A6070470C4B1A685F
:1027A00022F080521A607047094B1A6822F4803276
:1027B0001A607047064B1A6822F001021A607047CF
:1027C000044B1A6822F001021A607047241002407C
:1027D0000010024020100240024B1A6842F400220E
:1027E0001A60704700100240024B1A6822F400225F
:1027F0001A60704700100240032808D0052805D150
:10280000064B1A6842F004021A6070477047044B86
:102810001A6842F480221A60704700BF20100240FC
:1028200000100240032808D0052805D1064B1A687D
:1028300022F004021A6070477047044B1A6822F4B1
:1028400080221A60704700BF201002400010024032
:10285000034B1A6822F0030210431860704700BF50
:1028600004100240034B1A6822F4701242EA8040BE
:102870001860704704100240034B1A6822F470621B
:1028800042EA0020186070472C100240034B1A687F
:1028900022F4704242EA0030186070472C10024067
:1028A000034B1A6822F4803242EA004018607047F5
:1028B00004100240034B1A6822F4003242EA4040FE
:1028C0001860704704100240024B186800F4004082
:1028D000704700BF20100240024B1A6842F40042C9
:1028E0001A6070472010024006280AD8DFE800F07E
:1028F00004040430041D0A001F4B1A6822F44072BD
:102900001A6070471D4B19681A4641F001011960A1
:1029100013689907FCD5184B1A6822F440721A60A4
:102920001A6842F400721A607047134B1A6819460D
:1029300042F001021A600B680F4A9807FBD5136832
:1029400023F440731360136843F48073136070477B
:102950000B4B19681A4641F48031196013689B03C8
:10296000FCD5054B1A6822F440721A601A6842F4CA
:1029700040721A60704700BF2010024024100240CD
:1029800000100240034B1A6822F4404242EA8030B1
:102990001860704704100240034B1A6822F460521A
:1029A00042EAC0201860704704100240034B1A68C6
:1029B00022F4E06242EA00201860704704100240EE
:1029C000034B1A6822F0F00242EA001018607047C8
:1029D00004100240054B1A6818B922F480021A60EC
:1029E000704742F480021A60704700BF0410024032
:1029F000034B1A6822F00F0210431860704700BFA3
:102A00002C100240034B1A6822F0F00242EA001038
:102A1000186070472C100240054B1A6818B922F450
:102A200080321A60704742F480321A60704700BFEB
:102A30002C100240024B1868C0F38100704700BFA1
:102A40000410024070B504201E4CFFF759FE04200C
:102A5000FFF724FE2368022023F00303236023688A
:102A6000194D23F0F0032360236843F440432360AF
:102A7000236823F4E06343F480632360236823F432
:102A800060532360FDF78CFF236823F4701343F435
:102A900060132360236823F480332360FFF71AFD5B
:102AA0000020FFF7FBFD2668084B26F003060848C8
:102AB000084A094946F0020626602B60036011604F
:102AC00070BD00BF04100240000000200090D00341
:102AD00008000020040000200048E80170B5042030
:102AE000204CFFF70DFE0420FFF7D8FD23680120DE
:102AF00023F00303236023681B4D23F0F0032360BE
:102B0000236843F440432360236823F4E06343F4E1
:102B100080632360236823F460532360236843F4B5
:102B200080032360FDF73CFF236823F4701343F414
:102B300020132360236823F480332360FFF7CAFC4B
:102B40000020FFF7ABFD2668084B26F00306084877
:102B5000084A094946F0020626602B6003601160AE
:102B600070BD00BF0410024000000020006CDC02B9
:102B7000080000200400002000366E0138B5042053
:102B80001C4CFFF7BDFD0420FFF788FD23680020E3
:102B900023F003032360236823F0F00323602368FA
:102BA00023F440432360236823F4E0632360236815
:102BB00023F460532360FDF7F3FE236823F47013BE
:102BC00043F480132360236823F480332360FFF7EA
:102BD00081FC0020FFF762FD2568074B074825F0C0
:102BE00003050749074A45F00205256003600B60AD
:102BF000136038BD0410024000366E010000002052
:102C0000040000200800002038B50420244CFFF701
:102C100077FD0420FFF742FD2368032023F0030320
:102C20002360FFF76DFD0320FFF738FD23680020C8
:102C300023F0030343F001032360236823F0F00330
:102C40002360236823F440432360236823F4E06374
:102C50002360236823F460532360FDF7A1FE2368FB
:102C600023F4701343F480232360236843F48033F8
:102C70002360236823F400332360FFF72BFC00203C
:102C8000FFF70CFD2568074B074825F003050749AA
:102C9000074A45F00205256003600B60136038BDEC
:102CA0000410024000366E010000002004000020E5
:102CB0000800002070B50420264CFFF721FD0420F9
:102CC000FFF7ECFC2368032023F003032360FFF7E6
:102CD00017FD0320FFF7E2FC2368022023F0030323
:102CE00043F00103236023681B4D23F0F0032360AE
:102CF000236843F440432360236823F4E06343F4F0
:102D000080632360236823F460532360FDF748FE4B
:102D1000236823F4701343F4E0132360236843F41F
:102D200080332360236823F400332360FFF7D2FB52
:102D30000020FFF7B3FC2668084B26F0030608487E
:102D4000084A094946F0020626602B6003601160BC
:102D500070BD00BF041002400000002000A24A0421
:102D600008000020040000200051250270B5042056
:102D7000274CFFF7C5FC0420FFF790FC23680320D5
:102D800023F003032360FFF7BBFC0320FFF786FC5F
:102D90002368022023F0030343F001032360236828
:102DA0001C4D23F0F0032360236823F4404343F4D5
:102DB00000432360236823F4E06343F480632360CB
:102DC000236823F460532360FDF7EAFD236823F4AE
:102DD000701343F480132360236843F4803323602B
:102DE000236823F400332360FFF774FB0020FFF710
:102DF00055FC2668084B26F003060848084A09498E
:102E000046F0020626602B600360116070BD00BFB3
:102E1000041002400000002000A24A040800002024
:102E2000040000200051250270B50420274CFFF754
:102E300067FC0420FFF732FC2368032023F0030320
:102E40002360FFF75DFC0320FFF728FC23680220C6
:102E500023F0030343F00103236023681C4D23F098
:102E6000F0032360236823F4404343F400432360CA
:102E7000236823F4E06343F480632360236823F42E
:102E800060532360FDF78CFD236823F4701343F433
:102E9000E0132360236843F480332360236843F402
:102EA00000332360FFF716FB0020FFF7F7FB2668CF
:102EB000084B26F003060848084A094946F002066E
:102EC00026602B600360116070BD00BF04100240DB
:102ED0000000002000A24A04080000200400002096
:102EE0000051250270B50320324CFFF709FC032086
:102EF000FFF7D4FB2368022023F0030343F0010310
:102F00002360FDF74DFD23682B4D23F0F003236074
:102F10002368012023F4404343F4004323602368E3
:102F200023F4E06343F480632360236823F4605355
:102F300023602B6823F0F00343F040032B602B68E1
:102F400023F4706343F4C0632B60FFF7D9FB0120C7
:102F5000FFF7A4FB236823F4003323602B6843F4BA
:102F600080332B602B6823F00F0343F004032B60A6
:102F70002368124D23F4701343F4E0132360236895
:102F800043F480332360236823F480032360FFF736
:102F9000A1FA0020FFF782FB2668094B26F0030602
:102FA0000848094A094946F0020626602B6003607A
:102FB000116070BD041002402C100240000000207F
:102FC00000A24A040800002004000020005125024D
:102FD000044B1A6842F480321A601A6822F4803274
:102FE0001A6070472010024038B540F29730FDF764
:102FF000C3FD064D064A074C00234FF41C411360E5
:103000002B6023601160044838BD00BF505C004055
:10301000405C0040445C00407802002001325208CD
:1030200010B40CD0013A94B28B1C03EB440400E0C2
:10303000104631F8023B021DA1420360F8D15DF851
:10304000044B7047F0B402F00107520811D00D464E
:1030500004461346013B35F8046B9BB224F8026B1F
:10306000002BF7D1013A92B2013201EB820100EB61
:1030700042000FB10B780370F0BC70472DE9F047A8
:1030800080460068894692461F46BDF82860804702
:103090008760089F0D490E4A0E4BC760099F0025A7
:1030A000C0F80090C0F8DC80C0F804A007618682F8
:1030B0000167C2668366C0F8C850C0F8CC50C0F83B
:1030C000D050C0F8D450BDE8F08700BF35330008B9
:1030D0009533000835340008C161704701627047BC
:1030E000416270478162704770B50025036885753D
:1030F000C575D0F8DC2082B0DB790095044696686F
:1031000029462A46B047D4F8DC3029465B68204679
:103110009847E36903B1984702B070BD08B5D0F88D
:10312000DC305B6A984708BD08B5D0F8DC309B6A94
:1031300003B1984708BD00BF30B583B0069CD0F8F6
:10314000DC500094AC68A04703B030BD10B5D0F897
:10315000DC40E469A04710BD10B5D0F8DC40246A1B
:10316000A04710BD08B5D0F8DC301B69984708BDF2
:1031700008B5D0F8DC309B69984708BD08B5D0F891
:10318000DC305B69984708BD10B50268838FD2793F
:1031900004469A4211D3826B0021FFF7D7FF94F8BF
:1031A000442000239A420CBF0322022284F82C20E0
:1031B00084F84430A387A36310BD13460021826BBB
:1031C000FFF7C4FF0222236884F82C20D879A26B71
:1031D000A18F0244A263DB79CB1AA38710BD00BF85
:1031E0002DE9F04F00F1400C85B08046894600F192
:1031F000480600F1380A00F13C0B00243759351914
:10320000083447B1697999F800302A790B409A421D
:103210000AD0202CF2D14046494652465B4605B0C2
:10322000BDE8F04F00F0FABBCDF800C0CDF80CC0FF
:103230004046494652465B46B8470128DDF80CC077
:10324000E7D805B0BDE8F08F38B50268838FC58E2A
:10325000D279ED1A9542A8BF1546826BADB21A44D9
:1032600000212B460446FFF777FFA842024603D110
:10327000A38F1A44A28738BD204600210122FFF700
:1032800071FF002384F82C304FF0FF3038BD00BFB1
:1032900070B5036904468363CB880D468387FFF7C7
:1032A0009FFF0646E8B1E98819B3A38F22689942C7
:1032B000D27906D8002384F844302046BDE8704017
:1032C00062E7002BF7D093FBF2F102FB1133D3F14D
:1032D000010338BF002384F844302046BDE8704025
:1032E00052E7204631460122FFF73CFF84F82C606C
:1032F00070BD0B460A462046FFF728FF042384F8DA
:103300002C3070BD70B404460025A66C083436B16C
:103310000135042DF9D170BC4FF0FF30704700EB40
:10332000C50585F84C1085F84D20AB64304670BC5F
:10333000704700BF70B500F13006002532460564C5
:10334000294608230446FFF707FF082819D1E38E12
:1033500093B194F93020002A0EDBA28A9A4210D34E
:1033600021692268A587A163D2799A4234BF0523D7
:10337000062384F82C3070BD20463146BDE87040ED
:1033800086E7204600210122FFF7ECFE002384F8A7
:103390002C3070BD38B590F82C300446062B2BD05D
:1033A000072B18D0052B07D000210122FFF7DAFEEA
:1033B000002384F82C3038BDFFF746FF0028FADBE5
:1033C0002368E18EA28FDB798A1A9A42F3DC062306
:1033D00084F82C3038BD00210A460B46FFF7BCFEAE
:1033E000236C002284F82C201BB1204604F130010C
:1033F00098470023236438BDFFF726FF0028DADB57
:10340000204604F13001FFF7EBFE054648B10021EC
:103410000B460A462046FFF799FE042384F82C3019
:1034200038BD204629460122FFF79CFE84F82C5027
:1034300038BD00BF10B590F82C300446032B23D0C4
:10344000042B0CD0022B07D000210122FFF78AFEAB
:10345000002384F82C3010BDBDE8104094E6036CC6
:1034600013B100F13001984794F83030002BEFD1C0
:1034700094F83130052BEBD1D4F8DC30618E5B68E9
:10348000C9B220469847E3E7072380F82C3010BDE7
:10349000F8B54F880E4604469FB10368587C78B152
:1034A00061684B79BB4248D00A46002303E0957C13
:1034B0000D32AF4227D001339842F8D80020F8BD32
:1034C000F8BDC775D4F8DC302046DB689847D4F8DF
:1034D000C830B3B100222546A2642265A2652266E7
:1034E00004F11007043520460BB171889847BD429E
:1034F00007D0D5F8C83020460435002BF5D1BD42A1
:10350000F7D10120F8BD0133DBB203EB430203EB3B
:103510008202E375A2F10D03194408790028D1D085
:1035200000231F46D1F809201D01AA5801330AB112
:10353000177008799842F5D8C4E70123E375002392
:10354000EAE700BF1988012984BF01211980C37DE2
:103550001BB91268012013707047416803EB4300E8
:1035600003EB80030B44126813F8083C012013702E
:10357000704700BF30B4C47D406804EB440504EBE1
:1035800085040D3C044420798D8885420DD20120AC
:1035900018808988D4F809300901CB58126803B122
:1035A0001B781370012030BC7047002030BC70477E
:1035B00019880120022984BF022119801168002383
:1035C0000B7012685370704719880120022984BF5C
:1035D00002211980116800230B7012685370704724
:1035E00038B51D881446022D84BF02221A808988AE
:1035F0002568C9B2FFF7BCFD003018BF0120287054
:10360000236800225A70012038BD00BF08B58988A0
:103610000122C9B2FFF7A6FD012008BD08B58988BF
:103620000022C9B2FFF79EFD012008BD10B50B783E
:1036300053B94C887F2C07D8D0F8DC30847593F8C8
:1036400030201AB9012010BD002010BD49885B68E8
:10365000C9B29847012010BD70B5C27D456802EB24
:10366000420402EB84020D3A2A440C4615798988FB
:103670001E468D4216D9D2F80920090153181B792C
:103680006588AB420ED9535853B11D70D0F8D8306D
:1036900013B1A1886288984700233380012070BD50
:1036A000002DF3D0002070BD2DE9F04F4D88044669
:1036B000280A89B0022817460693EDB245D00328A0
:1036C00012D0012803D0002009B0BDE8F08F236894
:1036D0000699136023680A881B789A4238BF1346FC
:1036E0000B8009B0BDE8F08F2669002D00F02E8117
:1036F000A068013D0028E7D0E3689D42E3DA8A88AC
:1037000040F209439A42DED150F8250003F05CFCF8
:1037100001304300DBB2069933700A88AD00934252
:1037200028BF1346032B0B8040F21B810023A268A5
:1037300006EB43015259D25C01334A8006990A884C
:103740005208013A9A42F2DC0BE123690793079988
:1037500005EB450311606668069A05EB8304335D4B
:10376000158831199D4234BFAB469B465A4607988F
:10377000049103F0F3FA049A16F804A01379079C55
:10378000CBEB0505ADB25C44002B00F0D580D2F840
:10379000091000230593D4460846059B1B011A46D1
:1037A000024496680393E6B137782046BD4238BF9D
:1037B0002F463A463146CDF800C003F0CFFA3278B2
:1037C000049BDDF800C0D3F809009444039AED1B74
:1037D00007EB0B033C44ADB21FFA83FB1FFA8CFCD2
:1037E00002441179002900F09D8000230293029B7E
:1037F000D2F80C8003EB4307C7EBC70718F8076044
:1038000008EB0703B54238BF2E461946324620461C
:103810000193CDF800C003F0A1FA019B18F807202E
:10382000DDF800C0D3F80D10AD1B06EB0B0394447C
:10383000ADB21FFA83FB34441FFA8CFCD9B1019B53
:103840002046D3F81160CDF800C0B542B8BF2E466F
:10385000B6B2324603F082FA019BDDF800C0D3F81D
:103860001120AD1B06EB0B039444ADB21FFA83FB92
:1038700034441FFA8CFC019B1A79002A45D000269B
:10388000019BC6EB0619D3F809A020461AF8097067
:103890000AEB0908BD4238BF2F463A464146CDF8EB
:1038A00000C003F05BFA1AF80900DDF800C0D8F890
:1038B00007208444ED1B0BEB07033C441146ADB2DB
:1038C0001FFA83FB20461FFA8CFCC2B1D8F80B709C
:1038D000CDF800C0BD42B8BF2F46BFB23A4603F094
:1038E0003DFAD8F80B20DDF800C0ED1B07EB0B0309
:1038F00094443C44ADB21FFA83FB1FFA8CFC019B3D
:1039000001361A79B6B2B242BAD8049B039AD3F8F8
:103910000900029B02445E1C1179B6B2B1420296C4
:103920003FF665AF059B591C049B89B21A79059136
:103930008A423FF632AFE246079B0120A3F802A07D
:10394000069BA3F800B009B0BDE8F08F04230699E8
:103950000922B270F37033700B88042B28BF042344
:103960000B800323012073703E6009B0BDE8F08F27
:1039700010B403460022D3F8C84004333CB10132EE
:10398000042AF8D14FF0FF305DF8044B7047323213
:1039900040F8221020465DF8044B7047C0F8D8105C
:1039A000704700BF38B54C78092C05D8044D55F840
:1039B00024401CB1A04738BD002038BD204638BD8A
:1039C0007096000838B54C780B2C05D8044D55F886
:1039D00024401CB1A04738BD002038BD204638BD6A
:1039E0009896000810B54C78012C07D00AD3032C08
:1039F00006D14C8824B9064CA04710BD4C8824B190
:103A0000002010BD034CA04710BD034CA04710BDC3
:103A10000D360008E13500081D36000870B50C7839
:103A200014F060060CD104F01F04012C0AD012D34C
:103A3000022C03D1BDE87040FFF7D4BF304670BD03
:103A4000002070BD4C780B2CF8D8084D55F8244058
:103A50004CB1A04770BD4C78092CEFD8044D55F8F7
:103A60002440002CF5D1204670BD00BF9896000878
:103A70007096000800000000000000000000000038
:103A8000F0B4194A194C1A481A4E1B4FDFF888C077
:103A900025681A49946B1A4BC7F800C006601B686A
:103AA00008682C449463174A834238BF0B6011683E
:103AB00015488B42154C164988BF136006680D687F
:103AC000226833440135013A03600D6002D422605C
:103AD000F0BC70470F4B40F2F11145F6C122216056
:103AE0001A60F0BC704700BF040400203C24014071
:103AF0000008014022222202082401407400002014
:103B000024000040000200200004002004020020E5
:103B1000180200204400024003F82E00AFF300809A
:103B2000F0B4124A124C134F1348144EDFF864C01D
:103B300025681349546B134BC7F800C006601B6817
:103B400008682C445463104A834238BF0B601168E4
:103B50008B4288BF13600D490D4A0C6810682344DE
:103B600001300B601060F0BC704700BF04040020FF
:103B70003C24014008240140000801402222222068
:103B800074000020240000400002002000040020F7
:103B90001802002003F82E00AFF30080AFF300807E
:103BA000F0B4124A124C134F1348144EDFF864C09D
:103BB00025681349146B134BC7F800C006601B68D7
:103BC00008682C441463104A834238BF0B601168A4
:103BD0008B4288BF13600D490D4A0C68106823445E
:103BE00001300B601060F0BC704700BF040400207F
:103BF0003C24014008240140000801402222022206
:103C00007400002024000040000200200004002076
:103C10001802002003F82E00AFF30080AFF30080FD
:103C2000F0B4124A124C134F1348144EDFF864C01C
:103C300025681349D46A134BC7F800C006601B6897
:103C400008682C44D462104A834238BF0B60116864
:103C50008B4288BF13600D490D4A0C6810682344DD
:103C600001300B601060F0BC704700BF04040020FE
:103C70003C24014008240140000801402222202267
:103C800074000020240000400002002000040020F6
:103C90001802002003F82E00AFF30080AFF300807D
:103CA000F0B4124A124C134F1348144EDFF864C09C
:103CB00025681349946A134BC7F800C006601B6857
:103CC00008682C449462104A834238BF0B60116824
:103CD0008B4288BF13600D490D4A0C68106823445D
:103CE00001300B601060F0BC704700BF040400207E
:103CF0003C24014008240140000801402202222205
:103D00007400002024000040000200200004002075
:103D10001802002003F82E00AFF30080AFF30080FC
:103D2000F0B4124A124C134F1348144EDFF864C01B
:103D300025681349546A134BC7F800C006601B6816
:103D400008682C445462104A834238BF0B601168E3
:103D50008B4288BF13600D490D4A0C6810682344DC
:103D600001300B601060F0BC704700BF04040020FD
:103D70003C24014008240140000801402220222266
:103D800074000020240000400002002000040020F5
:103D90001802002003F82E00AFF30080AFF300807C
:103DA000F0B4124A124C134F1348144EDFF864C09B
:103DB00025681349146A134BC7F800C006601B68D6
:103DC00008682C441462104A834238BF0B601168A3
:103DD0008B4288BF13600D490D4A0C68106823445C
:103DE00001300B601060F0BC704700BF040400207D
:103DF0003C24014008240140000801400222222204
:103E00007400002024000040000200200004002074
:103E10001802002003F82E00AFF30080AFF30080FB
:103E2000F0B4124A124C134F1348144EDFF864C01A
:103E300025681349D46B134BC7F800C006601B6894
:103E400008682C44D463104A834238BF0B60116861
:103E50008B4288BF13600D490D4A0C6810682344DB
:103E600001300B601060F0BC704700BF04040020FC
:103E70003C24014008240140000801402022222265
:103E800074000020240000400002002000040020F4
:103E90001802002003F82E00AFF30080AFF300807B
:103EA00008B5024B1B68984708BD00BF7000002092
:103EB00038B5C4780D461248A42100F069FF2146A8
:103EC0002A46104802F05CFFA4F1E003072B2046CD
:103ED00003D88DB101F034F802E055B900F0F8FFD5
:103EE000094C237823B1094801F0A8FB0023237073
:103EF00038BD00F0B5FFF3E701F046F8F0E700BF8A
:103F0000C8960008F49600082B02002064040020E4
:103F100038B50446FCF73CF904EBC4040546E4005C
:103F2000FCF736F9401B8442FAD838BD10B5044678
:103F300028B14FF47A70FFF7EBFF013CF9D110BDC7
:103F4000054A064B1268D3E90001121A801841F1A4
:103F50000001C3E900017047041000E008020020DE
:103F600070B5094B094E1B68D6E900451B1BE418C8
:103F700045F1000520462946054A0023C6E90045CB
:103F800002F006FC70BD00BF041000E00802002033
:103F90004019010070B5094B094E1B68D6E9004570
:103FA0001B1BE41845F10005204629464822002342
:103FB000C6E9004502F0ECFB70BD00BF041000E054
:103FC0000802002008B5FEF775FE0120FCF7E8FCAA
:103FD00040F20230FCF7D0FD40F20330FCF7CCFD9C
:103FE0004FF44170FCF7C8FD4FF44070FCF7C4FD7E
:103FF0004FF46070FCF7C0FD40F20930FCF7BCFDE7
:104000000748FCF74BFA40F28910FCF7D3FD00207B
:10401000FEF7B8FCBDE808404FF42070FCF7ACBDDB
:104020000024014070B5254D002128460A46FF2393
:10403000FEF7F4F9224B28461A68022142F0FF02EB
:104040001A6000224FF48073FEF7E8F91D4C2846F1
:104050004FF48071FCF75CFD002120460A460223E4
:10406000FEF7DCF92046022100220423FEF7D6F9F0
:104070002046022100220123FEF7D0F9124B2846E8
:104080001A68002142F004021A601D68022225F01D
:1040900001051D604FF47843FEF7C0F9204600216A
:1040A00002224FF6F873FEF7B9F9BDE870400748F1
:1040B000002102224FF46043FEF7B0B9000801402E
:1040C0000C080140000C01400C0C014000100140A4
:1040D00070B5064640F20E30FCF74EFD1B4D40F227
:1040E0000230FCF749FD0221194C28460A464FF4DC
:1040F0000073FEF793F94FF48063012228460021F4
:10410000FEF78CF931462046FDF79CFE204608213B
:10411000FDF7ACFE20460021FDF7B2FE204600214F
:10412000FDF7B4FE20460021FDF7BCFE20460C2121
:10413000FDF7B2FE2046FDF7BBFEBDE87040054B23
:1041400000211B68986802F0AFBE00BF0008014064
:1041500000380140FC00002008B501F0C7FA024B0E
:1041600001221A6008BD00BF1C02002008B501F042
:10417000BDFA024B01221A6008BD00BF1C020020DC
:1041800038B51D4C1D4D20460421FCF7E7FA2046AA
:104190002A460421FCF7D8FB20464FF40072042184
:1041A000FCF72AFB20460421FCF748FB2046A5F13A
:1041B00020020421FCF7D2FB20464FF400620421C8
:1041C000FCF70CFB20460421FCF724FB20461022C0
:1041D0000421FCF7CDFB20460421FCF751FB2046CF
:1041E00004214FF48052FCF7EBFA20460421BDE88D
:1041F0003840FCF7D7BA00BF00000240240400207A
:1042000010B51E4C02212046FCF7A8FA20460221D8
:104210001B4AFCF7A3FB20464FF400620221FCF787
:10422000DDFA20460221FCF7F5FA20460221154A64
:10423000FCF78AFB20464FF400720221FCF7DCFAFF
:1042400020460221FCF704FB204608220221FCF74D
:104250008FFB20460221FCF71DFB204602214FF474
:104260008052FCF7ADFA20460221FCF7FBFA20460B
:104270000221BDE81040FCF753BB00BF0000024024
:10428000500000203824014010B51E4C0721204664
:10429000FCF764FA204607211B4AFCF75FFB204627
:1042A0004FF400620721FCF799FA20460721FCF73A
:1042B000BBFA20460721154AFCF746FB20464FF47F
:1042C00000720721FCF798FA20460721FCF7C0FA94
:1042D000204601220721FCF74BFB20460721FCF773
:1042E000D9FA204607214FF48052FCF769FA20469C
:1042F0000721FCF7B7FA20460721BDE81040FCF77C
:104300000FBB00BF0000024014020020100000405C
:1043100010B51E4C05212046FCF720FA2046052149
:104320001B4AFCF71BFB20464FF400620521FCF7FB
:1043300055FA20460521FCF777FA20460521154A53
:10434000FCF702FB20464FF400720521FCF754FAFB
:1043500020460521FCF77CFA204601220521FCF7C6
:1043600007FB20460521FCF795FA204605214FF46E
:104370008052FCF725FA20460521FCF773FA204607
:104380000521BDE81040FCF7CBBA00BF0000024099
:104390000C0000200008014010B51E4C01212046F1
:1043A000FCF7DCF9204601211B4AFCF7D7FA20462E
:1043B0004FF400620121FCF711FA20460121FCF7BD
:1043C00029FA20460121154AFCF7BEFA20464FF48F
:1043D00000720121FCF710FA20460121FCF738FA9F
:1043E000204608220121FCF7C3FA20460121FCF7F0
:1043F00051FA204601214FF48052FCF7E1F92046A2
:104400000121FCF72FFA20460121BDE81040FCF7FE
:1044100087BA00BF0000024010000020700000209A
:1044200010B5002082B0FDF7DFFD1E48FCF7C4F890
:10443000092302AA02F8083D1A486A460121FCF73E
:10444000F7F8072217489DF80010FDF71BFE4FF400
:1044500060211448FDF7DCFD1248FCF7D5F8002474
:1044600002AA02F8044D0F480121FCF729F9E1B234
:104470000C4800220134FDF705FE082CF7D14FF45B
:10448000E0410848FDF7D4FD0648FDF79DFD0548CD
:10449000FDF7DEFD0348FDF7E5FD0248FCF73EF9B8
:1044A00002B010BD0024014008B54FF44070FBF786
:1044B0000DFF1C20FBF776FE00211C20FBF7CAFE37
:1044C0001420FBF76FFE40211420FBF7C3FE2A20C7
:1044D000FBF768FEBDE808402A205021FBF7BABE72
:1044E00070B5154B1549164D164C40F26710C82291
:1044F00000262E6008601A6021680A2241F40071CB
:1045000021605A602368042143F4806323604FF0E4
:104510008040FCF7C1FE0C4BC9221A6022684FF0A4
:10452000804342F4006222602168012241F48071DC
:1045300021601A6070BD00BF340000402C000040B4
:10454000280000400C0000403C00004070B40C4AC1
:10455000106810F4005010D1136801309B04FBD593
:10456000084D0949094B4FF4005645F6C024102266
:104570002E600C601A6070BC70470020F0E700BF2E
:104580000000024004000240440002404800024093
:104590002DE9F04F514AABB013689804FCD5504D4B
:1045A0005048514B4FF4005645F6C02410214B4A59
:1045B0002E600460196013689904FCD5484F494D7A
:1045C0004948002200234FF0000E4FF4005645F6F4
:1045D000C0241021CDF814E03E602C600160CDE9CC
:1045E0000A23CDE90C23CDE90E23CDE91023CDE933
:1045F0001223CDE91423CDE91623CDE91823CDE903
:104600001A23CDE91C23CDE91E23CDE92023CDE9D2
:104610002223CDE92423CDE92623CDE92823334ADB
:104620004FF40073DFF8B4B0CDF818E002930792AE
:10463000DBF8003013F4005340F08881DBF80020F1
:1046400001339204FAD5079A934238BF1A4607926B
:10465000234A4FF400511160069A45F6C0211A44CE
:104660000692204ADFF890901160059ADFF878E012
:104670009A4238BF1A46102305924FF0000ACEF82E
:104680000030A9F1200353F8042F4B459244FAD18E
:104690000DF1600C08AFDFF85C80E6463E46002571
:1046A00050465C4658F8041FFEE902ABC1FB01AB63
:1046B000F6E902230135521843EBE173082DECE9CA
:1046C00002ABE7E90223EDD1A3468246084E094C2E
:1046D000002749F69F3846F6F04517E000000240F3
:1046E00004000240440002404800024080841E0052
:1046F000300000200004002020040020AB4240F3E2
:104700001881D7B2A14506F1040614D054F8043F2D
:104710007A1C4345F2DD30460121FFF7C9FB94497D
:104720004FF47A700B68043643F004030B60FFF714
:10473000EFFBA145EAD1082F00F002818D4800F07F
:104740005FFF00F085FF01468B4802F019FB029BDA
:10475000013B02937FF46CAF069A884B910AA3FB4E
:1047600001E1874802F00CFB079A864C5108A4FB34
:1047700001318548C90902F003FB059A83485108B5
:10478000A4FB0131C90902F0FBFA814B814E1B6881
:10479000D6E900451B1BE41845F10005482200231B
:1047A000C6E900452046294601F0F2FFDFF83092C5
:1047B0000446D9F80000DFF82C82201A01F02AFA0A
:1047C00065A3D3E90023C9F8004006460F4601F06F
:1047D000C1FB02460B46704802F0D2FA60A1D1E953
:1047E000000132463B4601F0B5FB01F023FD01F02C
:1047F00033FA02460B46694802F0C2FA514668484D
:1048000002F0BEFA504601F015FA57A3D3E900238F
:1048100001F0A0FB02460B46624802F0B1FA624882
:1048200002F03AFB0DF1600B0DF1200C4FF008097E
:10483000FCE90201CDF804C001F034FA00225B4B20
:10484000CDE9020101F05CFA01F0F4FC8246FBE9DB
:10485000020101F01FFA00224FF0814301F050FAEB
:1048600004460D46DDE9020102460B4601F048FA16
:1048700002460B462046294601F08EF821F00047FB
:10488000394600F045FF0022484B01F039FA01F0AB
:10489000D1FC044658F8040F404201F0D5FD4449CC
:1048A00001F0DAFE01F0D8F902460B46414802F069
:1048B00067FA3F49504601F0CFFE01F0CDF90246BC
:1048C0000B463D4802F05CFA3949204601F0C4FE2F
:1048D00001F0C2F902460B46374802F051FA214670
:1048E0002AF0004001F0B8FE01F0B6F902460B468E
:1048F000324802F045FAB9F10109DDF804C097D158
:104900002F4A304B11681B682F48B1FBF3F102F0BE
:1049100037FA2E4B2E48196802F032FA2D4B2E48EA
:10492000196802F02DFA2D482BB0BDE8F04F02F0C7
:10493000B3BA304600210137FFF7BAFAFFB2E1E619
:104940000B4A136823F004031360F7E60023079370
:104950007EE600BFAFF300800000000080842E419F
:10496000000000008084BE41000000000020DF4005
:104970000C0C0140840400200497000864320701F5
:10498000149700085330998328970008349700083B
:10499000041000E008020020409700084897000833
:1049A0005097000858970008D89700080000603F0B
:1049B0000000794560970008689700087097000824
:1049C00000040020180200207897000874000020DE
:1049D000889700080002002098970008A897000810
:1049E00010020020400400202DE9F04F404B002130
:1049F000404ADFF824E1404F404E196459649964FD
:104A0000D964196559659965D96593B00A214FF440
:104A1000005545F6C024102013689B04FCD50139CD
:104A2000CEF800503C603060F6D100220023CDE982
:104A30000223CDE90423CDE90623CDE90823CDE9FE
:104A40000A23CDE90C23CDE90E23CDE91023294D0E
:104A5000DFF8C490DFF8A080DFF8A0C0284E4FF444
:104A600080674FF4005E45F6C02A4FF0100B2B68AC
:104A70009B04FCD5234CC9F800E002A9C8F800A0AB
:104A8000CCF800B054F8040FD1E90023121843EB1E
:104A9000E073B442E1E80223F4D1013FE7D11A48C0
:104AA000694610ACF1E9026716F5007647F1000798
:104AB000B20A42EA87525542A14240F8045FF1D15E
:104AC000124D134EA5F1200454F8043F114886FB03
:104AD0000312D9171344A1EBE32102F051F9AC42C0
:104AE000F2D10A2013B0BDE8F04F02F061B900BF67
:104AF000040400200000024044000240480002403C
:104B00002004002000040020400400206004002055
:104B100053309983EC9700080400024008B51A4806
:104B200002F0BAF9194B1A48196802F029F9194B21
:104B30001948196802F024F9184B1948196802F04D
:104B40001FF9184B1848196802F01AF9174B184842
:104B5000196802F015F9174B1748196802F010F997
:104B6000164B1748196802F00BF9164B16481968CE
:104B700002F006F9154B1648196802F001F9BDE874
:104B800008400A2002F014B91898000804100240E6
:104B900024980008042401403898000808240140A3
:104BA0004C9800080C240140609800081024014033
:104BB000749800082C240140889800083024014093
:104BC0009C98000834240140B09800083824014023
:104BD000C498000838B51D4C1D4802F05DF92168E5
:104BE0001C4802F0CDF821461B4802F0C9F84FF0EE
:104BF00000611A4802F0C4F84FF4A871184802F096
:104C0000BFF81848184902F0BBF82468164D04F1A3
:104C1000006404F5A87023462A4653F8041B834217
:104C200042F8041BF9D1D4F8B010104802F0A8F8EB
:104C3000D5F8B0100E4802F0A3F80E480E4902F065
:104C40009FF8BDE838400A2002F0B2B808ED00E055
:104C5000D8980008E4980008F89800080C99000813
:104C6000209900083C99000800060020549900088B
:104C70006C99000884990008A13E0008AFF30080F9
:104C800070B5FBF76BFA00F051F8FFF79BF9FFF7EF
:104C9000C9F9194B194800241C70194EFFF718FA6E
:104CA00000F0DCFCFFF76CFAFFF7AAFAFFF7ECFA6A
:104CB000FFF72EFBFFF770FBFFF7B2FBFFF710FCCF
:104CC000FFF7F2FBFFF790FE0E480F490F4B104A1B
:104CD000104D346004600C601A6021460E4855F88F
:104CE000042F013402F04CF8082CF6D1FFF750FCE9
:104CF000FFF74EFCFAE700BF5007002090D00300FA
:104D0000000200200004002018020020740000208F
:104D100040420F000C000020F4970008024B1A6874
:104D200001321A60704700BF2002002008B50A4A0D
:104D30000A4B1068A3FB00208009FBF7D1FA084B4F
:104D400000221A600420FBF707FBFBF721FBBDE8FC
:104D50000840FBF70DBB00BF00000020D34D6210E0
:104D600018E000E0014B1868704700BF20020020E7
:104D7000014B1B681844704720020020034B1B683E
:104D800098422CBF00200120704700BF2002002065
:104D9000704700BF004870472402002070B50F4DD7
:104DA0000C46064602230E481A212B70FFF7F0FF2F
:104DB000718822460B4801F0E3FF34B9AC706C7087
:104DC0000648BDE8704000F02FBC738803481A0AFB
:104DD0006B70AA70BDE8704000F026BC2402002071
:104DE00098990008B099000870B50F4D0C4606461A
:104DF00001230E482B212B70FFF7CAFF7188224632
:104E00000B4801F0BDFF34B9AC706C700648BDE8CA
:104E1000704000F009BC738803481A0A6B70AA70CE
:104E2000BDE8704000F000BC240200209899000802
:104E3000B0990008421E024B504250411870704712
:104E40002A020020004870472A02002000487047CC
:104E5000840400200048704764040020704700BFAD
:104E600010B4164B1B7823B1021FD2B2D3081B2BF0
:104E700014D913490023CA1892783AB1904205D048
:104E80000133062BF7D15DF8044B70470D4A01241E
:104E90000B44987014705DF8044B7047012102F0C8
:104EA000070201FA02F20848084C034458782170BE
:104EB00002435A705DF8044B704700BF2A0200207D
:104EC000840400202C020020640400202B02002017
:104ED00010B4164B1B7823B1021FD2B2D3081B2B80
:104EE0000BD9134C0023E21891780133814214D07E
:104EF000062BF8D15DF8044B7047012102F0070240
:104F000001FA02F20B480C4C03445878217020EA55
:104F100002025A705DF8044B7047084901200023D3
:104F2000087093705DF8044B704700BF2A020020A0
:104F300084040020640400202B0200202C020020A6
:104F400000F00700012303FA00F070B409490A4A8F
:104F50000A4C0D781678C0B22478054330430D70A2
:104F600010701CB9064A137070BC7047054A137064
:104F700070BC704784040020640400202A020020D2
:104F80002C0200202B02002000F00700012303FA6E
:104F900000F070B40A490B4A0B4C0D781678C043E8
:104FA000C0B22478054030400D7010701CB9074A1B
:104FB000137070BC7047064A137070BC704700BF16
:104FC00084040020640400202A0200202C02002017
:104FD0002B02002070B5C4780D4627483E21FFF70C
:104FE000D7FE21462A46254801F0CAFEA4F1E00377
:104FF000072B1DD8002D3AD004F00704012101FA37
:1050000004F41F4A1F4B204815781E78E4B200783C
:105010002543344315701C7000B31C4C1C4D237881
:10502000297073B1164800F0EBFA0023237008E0F2
:1050300020467DB9FFF74CFF154D144C2378002B0B
:10504000F0D12B78124C23B10E4800F0F7FA002370
:10505000237070BDFFF704FF0D4DEEE70B4C0848C1
:10506000217000F0CDFA0023094D2370E9E72046B6
:10507000FFF78AFF064DE0E7CC990008F496000898
:1050800084040020640400202A0200202C02002056
:105090002B020020004870473002002030B409B9CC
:1050A00030BC70474578064B8478C17800221D706B
:1050B0005C709970DA701A71184630BC00F0AABAA8
:1050C0003002002010B411B95DF8044B7047074B53
:1050D000827841781A71C4780022DC7019709A7055
:1050E0005A7018465DF8044B00F094BA3002002064
:1050F000002380E80E00C360704700BF30B4C4686E
:1051000003464068621CB2FBF0F500FB15209D6869
:10511000A8420CD01868DA600155DC685A68084665
:10512000B4FBF2F102FB1142DA6030BC70474FF081
:10513000FF30FAE7002AF0B42BDDC56843686C1C29
:10514000B4FBF3F603FB1643866891F800C0B34244
:105150001FD000260368C46003F805C0C468436814
:105160000136B4FBF3F503FB1545964205F1010446
:10517000C5600BD0B4FBF3F703FB1743876811F846
:1051800001CFBB42E6D17042F0BC70473046F0BC64
:1051900070470020F0BC704730B403468268C06896
:1051A00082420DD05C68501CB0FBF4F504FB150482
:1051B0001D689860A85C9C6001B1087030BC7047A5
:1051C0004FF0FF30FAE700BF2DE9F001B2F100081F
:1051D00022DD8368C468A3421ED00E4600244768BF
:1051E0005D1CB5FBF7FC07FB1C5702688560D35CB0
:1051F000876006B133700134444501EB040607D0E3
:105200008368C568AB42EAD12046BDE8F00170472B
:105210006042BDE8F00170470020BDE8F001704732
:1052200003469A68006802440A609A68D868824215
:1052300009D003D807D29860801A704758680021B7
:10524000801A996070470020704700BFC06870479F
:105250004368C2681A44511AB1FBF3F003FB101003
:10526000704700BF014B00221A70704750070020A2
:1052700038B50A4604460D4601460C48FFF75AFF6A
:105280001CB115B123786E2B06D0094B094819784B
:10529000BDE8384001F074BD054B0648197881F02F
:1052A00001011970BDE8384001F06ABD38020020E4
:1052B0002A020020E499000830B583B000F0C8F954
:1052C0000A4C05462368834204D009488168C268B5
:1052D000914201D103B030BD01A9FFF7A1FF81B216
:1052E000019800F009FA256003B030BD5802002093
:1052F00048020020024B1A6801321A60704700BF52
:105300005C02002008B54FF45E710648FFF740FDCF
:10531000054801F0C1FD0549054A00230B701370D3
:1053200008BD00BFE89B0008FC9B00085007002058
:105330002D02002008B540F262310648FFF728FD33
:10534000054801F0A9FD0549054A01230B701370BA
:1053500008BD00BFE89B0008089C0008500700201B
:105360002D02002008B540F25B310648FFF710FD22
:10537000054801F091FD0549054A00230B701370A3
:1053800008BD00BFE89B0008149C000850070020DF
:105390002D02002030B5002583B004460095812100
:1053A00003220823FDF7C8FE204600958221032230
:1053B0000823FDF7C1FE2046009583210322082320
:1053C000FDF7BAFE20460095842103222023FDF735
:1053D000B3FE0F4B20460093072102222023FDF746
:1053E000ABFE20460095862102224023FDF7A4FE55
:1053F00020460095852103221023FDF79DFE054BD5
:10540000204601211F2203B0BDE83040FDF77ABFDE
:10541000E55500081954000800B5487883B00628FF
:1054200016D001281DD0092822D0022840D00A28F1
:1054300035D0032843D00B2800F0B28000F0FD00E7
:1054400020280AD15D4A5E4B01201070187005E0DB
:105450004888000A222800F08380022003B05DF80B
:1054600004FB89880329F8D8DFE801F040464C3373
:10547000898809B10329F0D1002B00F09C801B889A
:10548000002B00F09880002A00F095801368002B14
:1054900000F091801878FFF7E1FC0120DEE74A88F0
:1054A0008B88120A032BD8D8DFE803F04A524E56F5
:1054B00089880329D1D8DFE801F03D37312B89886D
:1054C00009B10329C9D101920093FFF7BBFC012167
:1054D00004E001920093FFF7BDFC1D21019A1060CA
:1054E000009B0120198003B05DF804FB019200933A
:1054F000FFF7ACFC0821F1E701920093FFF7CAFD2A
:105500000521EBE701920093FFF744FC0321E5E757
:105510002C4801211060084619809FE72A48012184
:1055200010600846198099E7284801211060084654
:10553000198093E7264801211060084619808DE7FD
:10554000234B01201A7089E71F4B01201A7085E751
:105550001E4B01201A7081E71A4B01201A707DE75B
:10556000898803293FF679AFDFE801F0140E0802BD
:10557000184839211060012019806FE7164836213C
:1055800010600120198069E714484D211060012046
:10559000198063E712483F211060012019805DE700
:1055A0008B8813B1032B7FF458AF4888C0B2FFF744
:1055B00041FC012052E7012050E700BF50070020C6
:1055C0002D02002029020020280200202F020020A6
:1055D0002E020020289D0008B09B0008289A000891
:1055E000909A000800B589B06A4620230721FDF78C
:1055F000B3FD01466846FFF73BFE09B05DF804FBCA
:10560000034B0246012118680823FDF79FBD00BF28
:1056100060020020034B0246022118680523FDF7B3
:1056200095BD00BF60020020034B032102461868AD
:105630000B46FDF78BBD00BF60020020034B024606
:10564000042118681D23FDF781BD00BF6002002002
:10565000014B1868704700BF5C02002030B5184845
:10566000184D85B008214FF480722B4601900091AF
:1056700002921549154A1648FDF700FD154C1649CA
:105680002060FEF775F920681449FDF725FD2068B4
:105690001349FDF725FD20681249FDF723FD124946
:1056A0002068FDF71BFD286801F0F6FB686801F033
:1056B000F3FBA86805B0BDE8304001F0EDBB00BFCA
:1056C0005807002078000020FC9C0008189A000869
:1056D0003C960008600200209553000865530008BE
:1056E00035530008F552000805530008014B1868AF
:1056F000FDF714BD6002002010B4044C02460B46B6
:10570000206806215DF8044BFDF720BD60020020F3
:105710002DE9F0478AB004460D4600F04FF8DFF857
:1057200098A006469AF900300F4601330FD0204664
:10573000294600F003F950B14FF000084FF000097E
:1057400042464B462046294600F04CFD20B93046E3
:1057500039460AB0BDE8F08716499AF80060012280
:105760000023CDE90445CDE902450191009208935B
:1057700066B9CDE90689684600F008F980B1089B52
:105780009BB9DDE906010AB0BDE8F087404649460D
:1057900042464B4600F0DEFB022ECDE90601EAD17F
:1057A00001F0D6FA21230360E9E701F0D1FA089B62
:1057B0000360E6E7649D00089800002021F0004C9B
:1057C0002DE9F8434FEA1C5CDFF86C814FEA0C5C72
:1057D000C44506460F460B46024600F08F8000295E
:1057E0006FDD0F1578D0A7F2FF37C3F31303F90766
:1057F00043F4801360D4D10F4FF0000C01EB43034E
:105800007F105200654616204FF400116C189C4220
:105810004FEAD2764FEA420202DC1B1B65188C4429
:10582000013806EB43034FEA5101EFD180462026B1
:105830004FF0004109E023D0D40F013E4FEA51015F
:1058400004EB43034FEA42021ED0AB4201EB0804D3
:10585000F1DD04F00049B9F1004F04EB010809D073
:10586000A9465B1B944288BF03F1FF33121B084417
:105870004D46E1E7B8F1000FF2DB05F10109F0E771
:105880009442E6D91D46D7E71A4304D0431C41D0C1
:1058900000F00103184446084FEA6C031CF0010FA6
:1058A00003F17F5303F5001318BF46F0004603EBE6
:1058B00007513046BDE8F883D10F01EB4303520096
:1058C00099E721F00043034322D051BB0F46D30A8E
:1058D000153F5205002BFAD013F480111DD15B0047
:1058E000D80201F10101FAD5C1F10100C1F1200492
:1058F00022FA04F407448A40234374E702460B4625
:1059000000F0FEF932463B4600F048F8BDE8F88367
:10591000BDE8F8830CF1010CBEE720240120002132
:10592000E6E702460B4600F037F802460B4600F069
:1059300011FBBDE8F88300BF0000F07F31F00043A9
:1059400010B408D00F4AA3F5801494420AD804205A
:105950005DF8044B704700280CBF022003205DF85F
:10596000044B7047B3F5801F01D20320F7E7064AC6
:10597000934201D00020F2E7D0F1010038BF0020AF
:10598000EDE700BFFFFFDF7F0000F07F00207047E2
:1059900081F0004102E000BF83F0004330B54FEAE0
:1059A00041044FEA430594EA050F08BF90EA020F4D
:1059B0001FBF54EA000C55EA020C7FEA645C7FEAE0
:1059C000655C00F0E2804FEA5454D4EB5555B8BF03
:1059D0006D420CDD2C4480EA020281EA030382EA74
:1059E000000083EA010180EA020281EA0303362D06
:1059F00088BF30BD11F0004F4FEA01314FF4801CD9
:105A00004CEA113102D0404261EB410113F0004FEA
:105A10004FEA03334CEA133302D0524263EB4303A1
:105A200094EA050F00F0A780A4F10104D5F1200E3F
:105A30000DDB02FA0EFC22FA05F2801841F100019A
:105A400003FA0EF2801843FA05F359410EE0A5F16E
:105A500020050EF1200E012A03FA0EFC28BF4CF09F
:105A6000020C43FA05F3C01851EBE37101F0004555
:105A700007D54FF0000EDCF1000C7EEB00006EEB62
:105A80000101B1F5801F1BD3B1F5001F0CD34908EC
:105A90005FEA30004FEA3C0C04F101044FEA445243
:105AA00012F5800F80F09A80BCF1004F08BF5FEACA
:105AB000500C50F1000041EB045141EA050130BDAA
:105AC0005FEA4C0C404141EB010111F4801FA4F14D
:105AD0000104E9D191F0000F04BF01460020B1FAA2
