:020000040800F2
:1000000000500020390200083502000831020008C3
:10001000310200083102000831020008000000002F
:100020000000000000000000000000003502000891
:1000300035020008000000003502000821280008F1
:1000400031020008310200083102000831020008C4
:1000500031020008310200083102000831020008B4
:1000600031020008310200083102000831020008A4
:100070003102000831020008310200083102000894
:100080003102000831020008310200083102000884
:100090006D1E00083102000831020008310200081C
:1000A0003102000831020008310200083102000864
:1000B000511C00083102000831020008310200081A
:1000C0003102000831020008310200083102000844
:1000D0003102000831020008310200083102000834
:1000E0003102000831020008811E000831020008B8
:1000F0003102000831020008310200083102000814
:100100003102000831020008310200083102000803
:1001100031020008310200083102000831020008F3
:1001200031020008310200083102000831020008E3
:1001300031020008310200083102000831020008D3
:1001400031020008310200083102000831020008C3
:100150000A490B4A0B6843F080730B60136813F075
:10016000007308D1A1F55D41F8390B6013680120D7
:100170000343136070470020704700BFFCED00E0B0
:10018000001000E0034B186810F0010018BF586819
:10019000704700BF001000E043099B0003F160437B
:1001A00000F01F00012203F5614302FA00F018601D
:1001B000704700BF432805D800F1604000F5644057
:1001C00001707047024B00F00F00C154704700BF30
:1001D00014ED00E040F0BF60024B40F400301860C6
:1001E000704700BF0CED00E0024B20F07F4018602C
:1001F000704700BF14E000E0044A00F004001368F8
:1002000023F0040318431060704700BF10E000E0C3
:10021000024A136843F002031360704710E000E0E5
:10022000024A136843F001031360704710E000E0D6
:10023000FEE700BF704700BF234A244B9A420FD20B
:10024000D44310462344224D23F0030304332946AC
:100250001D4451F8044BA94240F8044BF9D11A440B
:100260001C4B9A420DD2D91C131DC91A21F003014F
:1002700004311144002000E004338B4210601A4620
:10028000FAD1154A154C1368154D43F40073AC426E
:10029000136004D254F8043B9847AC42FAD3114C93
:1002A000114DAC4204D254F8043B9847AC42FAD307
:1002B0000E4D0F4C02F066FAAC4204D254F8043BE7
:1002C0009847AC42FAD300BF00000020380100205C
:1002D000A47400085C08002014ED00E09C74000881
:1002E0009C7400089C7400089C7400089C740008AE
:1002F0009C740008836823F001038360704700BF8B
:10030000836843F400638360704700BF836843F0F1
:1003100002038360704700BF102923D82DE9F04104
:1003200009B30024A446A046A64601235F1C062B61
:10033000A3F10706A3F10D05FBB21FD9052E16D9AF
:10034000052D20D9994202F1010204F10504EDD2F4
:1003500001394EEA0151C162C0F83080C0F834C0A2
:10036000BDE8F08170478C4688468E46F0E71678E7
:10037000A4F11E07BE4048EA0608E1E71778A74047
:100380004CEA070CDAE71578A4F13C06B5404EEAD2
:10039000050ED7E7042915DC70B4A1B14E1E26F076
:1003A000FF0311440F241A44002511F8013DA34016
:1003B0008A4245EA0305A4F10504F6D145EA06514F
:1003C000816370BC70470D464FF0FF36F6E700BF03
:1003D000836800F1080243F48003836013685B02C2
:1003E000FCD4704710B401398C002144002300EB89
:1003F00081018B60CB600B614B6142680F23A3408E
:100400001343436010BC7047013901EB810189003F
:1004100008300B5843F480430B500B5823F0200353
:100420000B507047013901EB8101890008300B58EE
:1004300023F440530B500B581A430A50704700BF27
:10044000013901EB8101890008300B5823F4406326
:100450000B500B581A430A50704700BF013901EB8B
:100460008101890008300B5823F440730B500B585E
:100470001A430A50704700BF013901EB810189001E
:1004800008300B5843F080030B507047013901EBE3
:100490008101890008300B5823F080030B5070470E
:1004A000013901EB8101890008300B5843F040030A
:1004B0000B507047013901EB8101890008300B585E
:1004C00023F040030B507047013901EB8101890093
:1004D00008300B5843F020030B500B5823F4804393
:1004E0000B507047013901EB8101890008300B582E
:1004F00023F010030B507047013901EB8101890093
:1005000008300B5843F010030B507047013901EBD2
:100510008101890008300B5843F001030B507047EC
:10052000013901EB810100EB81008368DB0758BFD3
:1005300002617047013901EB810100EB81008368A2
:10054000DB0758BF42617047013901EB8101890027
:100550000C300A50704700BF034A136823F00703AA
:1005600018431060704700BF0020024001617047CF
:10057000430903F1804303F504331968012200F0B5
:100580001F0002FA00F040EA01021A601A6822EA2B
:1005900000001860704700BF430903F1804303F572
:1005A00004331A6800F01F00012101FA00F0104323
:1005B00018607047FFF7F0BF024B41F080011960EF
:1005C000704700BF4C5C00403E2A11D9D00618BFCE
:1005D000203A6FEA82526FEA52420D4B0D481B6877
:1005E00092B29BB203EBC10149000844026070471C
:1005F000D307074B48BF01321B6806489BB203EB89
:10060000C1019202490092B208440260704700BFE3
:10061000505C00400C6000402DE9F04101F07F0784
:10062000BE0006F1804606F5B8460D463168DFF893
:1006300048C121F4E04182B021F07F0141EA070482
:100640008646DCF80410DCF80000EC46A4B2ACE806
:100650000300346031680CEB420221F4EC4132F8C3
:10066000082C21F070010A4325F07F0592B2326018
:1006700005F0FF00DDF82080002D3DD1002F3BD09C
:10068000BEF81810FA001C46394B3A481B687546EC
:100690009BB21A445200104401602246394670460B
:1006A000FFF792FFB8F1000F05D007EB470705EB06
:1006B0008707C7F86C804CF68F733268102113409F
:1006C00033603068012220F4804020F0700080B256
:1006D00003E012F4405F18BF50405200013992B25B
:1006E000F7D140F4004040F0800030602B8B1C4478
:1006F0002C8302B0BDE8F0811D49FA000968BEF8FC
:10070000184089B21144490001F1804101F5C0410E
:100710000C60B8F1000F05D007EB47010EEB81012B
:10072000C1F8688048F6CF713568102429403160DF
:100730003568012125F4E04525F04005ADB203E020
:1007400011F0200F18BF4D404900013C89B2F7D18C
:1007500045F4004545F080053560BEF81810194491
:1007600089B2AEF8181000288DD002B0BDE8F08133
:10077000505C004008600040E86B000830B40F494E
:100780000F4D40F63F7243F60F730C68224042F45F
:10079000004242F080020A600A68134043F40043BA
:1007A00043F0800341F8043BA942EAD130BC03681E
:1007B000DB7920335B000383704700BF045C00409B
:1007C000205C004070B400293DD1394B002A1D68DF
:1007D00018BF102625F4E04525F0400508BF202667
:1007E00010200123ADB2334218BF5D405C000138D8
:1007F000A3B2F8D145F400452D4B45F080051D60AE
:10080000002A4AD08D0005F1804505F5B8452868D5
:10081000002A20F4804020F0700014BF4FF4805470
:100820004FF44054102280B20123234218BF584095
:100830005900013A8BB2F8D140F4004040F08000FA
:10084000286070BC70470B06DAD501F07F0080008D
:1008500000F1804000F5B8400568002A25F4E04525
:1008600025F0400514BF102620261021ADB201232B
:10087000334218BF5D405C000139A3B2F8D145F4A2
:10088000004545F080050560002ADAD148F6CF73AF
:1008900002681340036070BC70474CF68F738D0084
:1008A00005F1804505F5B84529680B402B60AEE79A
:1008B000005C00400B060DD4890001F1804101F578
:1008C000B841086800F44050A0F58050B0FA80F0BC
:1008D0004009704701F07F01890001F1804101F575
:1008E000B841086800F03000A0F11000B0FA80F0C4
:1008F000400970470B061DD41A4B5A54890001F168
:10090000804000F5B8400168AAB121F4804121F08F
:100910007001102289B2012303E013F4005F18BFB5
:1009200059405B00013A9BB2F7D141F4004141F0DC
:1009300080010160704721F4804121F07001102294
:1009400089B2012303E013F4405F18BF59405B00F4
:10095000013A9BB2F7D141F4004141F080010160BE
:10096000E8E700BF5C020020F8B501F07F04A500B5
:1009700005F1804505F5B845286800F03007302FAF
:1009800033D01E461A4FE4003B6811469BB2234405
:100990005B0003F1804303F5C043188832464000F2
:1009A00000F1804000F5C04000F064FA3B68114A55
:1009B0009BB223445B001A4416602C68102124F477
:1009C000E04424F04004A4B2012203E012F0300F0E
:1009D00018BF54405200013992B2F7D144F4004498
:1009E00044F080042C603046F8BD0020F8BD00BF04
:1009F000505C004004600040F8B58D0005F1804572
:100A000005F5B8450C46296801F44051B1F5405F41
:100A10004BD01E462648E7000168264B89B2394470
:100A200049000B441B68C3F30903B34208DA0168A9
:100A3000204B89B2394449000B441E68C6F30906AD
:100A40001B4B1D491B6810469BB23B445B0019447D
:100A500009883246490001F1804101F5C04100F0AA
:100A60001BFA40F60F732968144A0B4043F08003C9
:100A70002B60135DBBB92C68102124F4804424F052
:100A80007004A4B2012203E012F4405F18BF544086
:100A90005200013992B2F7D144F4004444F080048A
:100AA0002C603046F8BD3046F8BD0020F8BD00BFD0
:100AB000505C00400C600040086000405C02002078
:100AC000F8B5374B044619688DB26E0541D4080459
:100AD00024D4290506D54FF2FF72314B1A60236AE0
:100AE00003B19847EA0406D54EF6FF722C4B1A6004
:100AF000636A03B19847AB0507D54FF6FF52284B01
:100B00001A60A36A002B39D09847A36A002B35D00E
:100B1000244A136843F400731360F8BD15F0100302
:100B200001F00F011ED140F60F708A0002F18046DD
:100B300006F5B8463768384040F40040306001EBB5
:100B4000410003441A3354F82330EBB12046984750
:100B5000BFE74FF6FF31402219600283BDE8F8403D
:100B600000F0EAB98A0002F1804303F5B8431B683C
:100B700013F4006F0CBF01230223E0E7094A136856
:100B800023F400731360F8BD40F60F7302F1804246
:100B900002F5B84211680B4043F08003136098E7F8
:100BA000445C0040405C0040C3681943C16070472A
:100BB000064A074B90421B6804BF064B1B6801EBBB
:100BC00043034900B3FBF1F38360704700380140F1
:100BD0000400002008000020C36808290CBF23F48B
:100BE000805343F48053C360704700BF036923F40C
:100BF0004053194301617047C36823F4C06319432C
:100C0000C1607047C36823F00C031943C16070478B
:100C1000436923F44073194341617047C36843F447
:100C20000053C360704700BF8368DB0703D4836849
:100C300043F0010383607047024A13681843106051
:100C4000704700BF04240140836823F460231943E4
:100C50008160836843F4801383607047836823F462
:100C6000E04319438160836843F400438360704725
:100C7000836800F1080243F00803836013681B07D0
:100C8000FCD47047836800F1080243F004038360DA
:100C900013685B07FCD47047092910B40DD90A39D1
:100CA00001EB4101C36807248C4002FA01F123EAF9
:100CB00004021143C16010BC704701EB410103699C
:100CC00007248C4002FA01F123EA04021143016176
:100CD00010BC70472DE9F0474FF00F0C96460225E7
:100CE00002680024D0F8048006E046EA09020134D4
:100CF000102C05F1040526D043FA04F6F607F6D5C4
:100D0000A6000CFA06F901FA06F7072C0EFA05F60A
:100D100022EA090946EA0706E7D9A5F12206B6B292
:100D200006F102090EFA09FA0CFA06F701FA06F9B9
:100D300001344AEA090928EA0706102C49EA06089C
:100D400005F10405D8D10260C0F80480BDE8F08741
:100D5000024A136843F0807313607047001002402A
:100D6000034A136823F4404343EA8030106070471D
:100D7000041002402B4B19461A6842F001021A6017
:100D80000B68284A9807FBD511462748036823F0CB
:100D900003030360136843F4803313600B689A0302
:100DA000FCD570B5204C0220236823F0030343F0E8
:100DB00001032360236823F0F0032360236843F4D6
:100DC00040432360236823F4E06343F4806323609B
:100DD000236823F460532360FFF7BEFB236823F4EA
:100DE000701343F4E0132360236843F480332360DB
:100DF000236823F400332360FFF7AAFF094A13682E
:100E00009B01FCD50849094A0B68094E23F00303EE
:100E1000084D0948094C43F002030B6032602A6018
:100E2000046070BD001002400410024000A24A0499
:100E300000000020080000200400002000512502CE
:100E400038B540F29730FFF7B5FB064D064A074C20
:100E500000234FF41C4113602B6023601160044891
:100E600038BD00BF505C0040405C0040445C004026
:100E7000640200200132521093B25AB15A1E92B24B
:100E8000013201EB420231F8023B0430914240F85A
:100E9000043CF8D1704700BF70B402F0010652085C
:100EA00012D00B46013A94B2013400EB440533F8FA
:100EB000042B20F8022BA842F9D101EB84010EB1DA
:100EC0000B782B7070BC70470546F8E72DE9F04DA4
:100ED000074600688B4692461E46BDF8288080472C
:100EE0008660089E0D4D0E4B0E49C660099E00227D
:100EF000C0F800B0C0F8DC70C0F804A00661A0F82B
:100F000014800567C3668166C0F8C820C0F8CC208D
:100F1000C0F8D020C0F8D420BDE8F08D65110008DD
:100F2000C911000869120008C16170470162704769
:100F3000416270478162704770B5044600250368BE
:100F40008575C575D0F8DC2082B0DB790095966890
:100F500029462A46B047D4F8DC3029465B6820464B
:100F60009847E3691BB102B0BDE87040184702B072
:100F700070BD00BFD0F8DC305B6A184710B4D0F801
:100F8000DC40A468A44610BC604700BF10B4D0F891
:100F9000DC40E469A44610BC604700BF10B4D0F840
:100FA000DC40246AA44610BC604700BFD0F8DC30A7
:100FB0001B691847D0F8DC309B69184710B50268E8
:100FC000838FD27904469A4211D3826B0021FFF7B6
:100FD000DDFF94F8442000239A4214BF022203222A
:100FE00084F8443084F82C20A387A36310BD1346F3
:100FF0000021826BFFF7CAFF0223216884F82C309E
:10100000CA79A06BA38F0244A263CA799B1AA387F3
:1010100010BD00BF2DE9F04F06460F4683B000F12A
:10102000380900F13C0A00F1480400F1680800F1B9
:10103000400B25684DB16379397822790B409A428B
:1010400004F108040AD04445F3D153464A463946D0
:10105000304603B0BDE8F04F00F0BCBBCDF800B0A7
:1010600053464A4639463046A8470128EBD803B0D4
:10107000BDE8F08F38B50368828FC48EDB79A41A7F
:101080009C42A8BF1C46836BA4B21A44002123468D
:101090000546FFF783FF844204D1AB8F20461C44F2
:1010A000AC8738BD284601220021FFF77FFF0023CF
:1010B00085F82C304FF0FF3038BD00BF70B50369A4
:1010C00004468363CB880D468387FFF7A3FFF0B107
:1010D000EB882BB3A28F21689342C97907D80022ED
:1010E00084F844202046BDE87040FFF767BF002A1F
:1010F000F6D092FBF1F301FB1322B2FA82F252090D
:1011000084F844202046BDE87040FFF757BF0646EC
:10111000014601222046FFF749FF84F82C6070BD8C
:101120001A4619462046FFF731FF042384F82C3075
:1011300070BD00BF70B404460025A66C08343EB1F3
:101140000135042DF9D14FF0FF36304670BC7047A1
:1011500000EBC50080F84C1080F84D2083643046C9
:1011600070BC704770B5002500F13006324605644A
:10117000294608230446FFF711FF08281AD1E38EF9
:1011800093B194F93020002A0EDBA28A9A4211D33F
:1011900021692268A587A163D2799A4234BF0523C9
:1011A000062384F82C3070BD31462046BDE87040DF
:1011B000FFF784BF012200212046FFF7F7FE00233E
:1011C00084F82C3070BD00BF38B590F82C30044640
:1011D000062B2BD0072B18D0052B07D0012200217E
:1011E000FFF7E4FE002384F82C3038BDFFF742FF00
:1011F0000028FADB2268E38EA18FD2795B1A934232
:10120000F3DC062384F82C3038BD00231A46194637
:10121000FFF7C4FE236C002284F82C201BB104F1DC
:101220003001204698470023236438BDFFF722FF92
:101230000028DADB04F130012046FFF7EBFE05461B
:1012400048B100231A4619462046FFF79FFE0423A3
:1012500084F82C3038BD014601222046FFF7A6FE57
:1012600084F82C5038BD00BF90F82C30032B26D0CA
:10127000042B10B504460DD0022B07D0012200210B
:10128000FFF794FE002384F82C3010BDBDE8104019
:10129000FFF794BE036C13B100F13001984794F846
:1012A0003030002BEED194F83130052BEAD1618E2D
:1012B000D4F8DC30C9B25B6820469847E2E70723E0
:1012C00080F82C30704700BFF8B54E8896B103689F
:1012D0005D7C6DB147687B79B34244D03A460023C8
:1012E00003E0947C0D32A64222D001339D42F8D116
:1012F0000020F8BDC6750446D0F8DC300F46DB6828
:101300009847D4F8C8308BB10022A2642265A26548
:10131000226604F1C80504F1D40613B17988204689
:101320009847AE4202D055F8043FF6E70120F8BDD9
:101330005A1CD2B2C275002ADDD002EB420302EB86
:1013400083020D3ABB181D79002DD4D00022174618
:10135000D3F809401601345901320CB127701D79B8
:101360009542F5D8C7E70123C3750022EAE700BF1D
:101370001988012984BF01211980C37D1BB9126816
:10138000012013707047416803EB430003EB8003B7
:101390000B44126813F8083C01201370704700BF1B
:1013A00030B4C47D406804EB440504EB85040D3C77
:1013B000044420798D8885420DD2012018808B88C5
:1013C000D4F809101B015B58126803B11B78137025
:1013D000012030BC7047002030BC704719880120C4
:1013E000022984BF02211980116800230B70126842
:1013F0005370704738B514461D88022D84BF0222F1
:101400001A8089882568C9B2FFF7D4FD003018BF5B
:1014100001202870236800225A70012038BD00BFC7
:1014200008B589880122C9B2FFF7C0FD012008BDB7
:1014300008B589880022C9B2FFF7B8FD012008BDB0
:101440000B786BB910B54C887F2C07D8D0F8DC30FE
:10145000847593F830202AB9012010BD184610BDBC
:101460000020704749885B68C9B29847012010BDC9
:1014700070B5C27D446802EB420502EB85020D3A6D
:10148000224415798C88A54217D9D2F80920240165
:1014900015192E794D88AE420FD912595AB11570CF
:1014A0001C46D0F8D83013B14A8889889847002361
:1014B0002380012070BD002DF2D0002070BD00BF40
:1014C0002DE9F04F4C880646200A89B002281546BF
:1014D000069346D0032812D0012803D0002009B07B
:1014E000BDE8F08F33680699136032680B88127874
:1014F000934228BF13460B8009B0BDE8F08F14F06B
:10150000FF03376900F01281B068013B0028E6D084
:10151000F2689342E2DA40F2094289889142DDD1D1
:1015200050F823009C0003F04FFC01304300DBB275
:1015300006993B700A88934228BF1346032B0B8001
:1015400040F2FF800023B16807EB43020959C95CF0
:1015500001335180069A12885208013A9A42F2DC0D
:10156000EFE03369E4B213607668069A04EB440551
:1015700004EB85051F4614880793735D7219A34217
:1015800028BF234690469B460392114638461A468A
:1015900002F056FE98F80430CBEB0404A4B216F81F
:1015A00005A007EB0B09002B00F0B6800023D8F84C
:1015B00009200593059B1B011F460493D3189D68C2
:1015C000BDB12E782946A64228BF26464846324657
:1015D00002F036FE039A2B78D2F809209A44A41B15
:1015E00006EB0B01A4B21FFA81FBB1441FFA8AFA81
:1015F000D3191979002900F0868000220292DF6851
:10160000029B03EB4306C6EBC606BD5DB819A542B7
:1016100028BF25468046014600902A46484602F0EB
:101620000FFEBB5DD8F80D10641BAB449A44A4B206
:101630001FFA8BFBA9441FFA8AFAA1B1D8F81150FE
:101640004846A542A8BF2546ADB22A4602F0F8FD9D
:10165000D8F81130641BAB449A44A4B21FFA8BFB38
:10166000A9441FFA8AFA009B1B79002B3ED05346EF
:1016700000250193009BC5EB0518D3F809A0484647
:101680001AF808600AEB0807A64228BF2646394622
:10169000324602F0D5FD1AF80820019BD7F8071052
:1016A000A41BB3441344A4B21FFA8BFBB1449BB2F6
:1016B000A9B10193D7F80B604846A642A8BF2646B9
:1016C000B6B2324602F0BCFDD7F80B20019BA41B3A
:1016D000B3441344A4B21FFA8BFBB1449BB2009AEB
:1016E00001351279ADB2AA42C3D89A46039B02983B
:1016F000D3F80920049B0130D318197980B28142B4
:1017000002903FF67CAF0599039B01311B7989B2AA
:101710008B4205913FF64EAF079B0120A3F802A034
:10172000069BA3F800B009B0BDE8F08F092204239E
:10173000BA70069AFB703B701388042B28BF0423F1
:101740001380032301207B702F6009B0BDE8F08F68
:1017500019880120022984BF022119801168002301
:101760000B7012685370704710B4002300F1C4046A
:1017700054F8042F3AB10133042BF9D14FF0FF3262
:10178000104610BC7047323340F8231010BC10468E
:10179000704700BF10B44C78012C08D00CD3032C38
:1017A00007D14C882CB9084CA44610BC60474C8823
:1017B00034B1002010BC7047044CA44610BC6047F4
:1017C000034CA44610BC604721140008F513000820
:1017D0003114000830B40C7814F0600F10D104F00C
:1017E0001F04012C0FD004D3022C09D130BCFFF709
:1017F000D1BF4C78092C03D8084D55F8244054B972
:10180000002030BC70474C780B2CF9D8044D55F8AB
:101810002440002CF4D0A44630BC6047246C00085F
:101820004C6C0008000000000000000000000000F8
:10183000F0B41849184A1948194F12688D6B194CA1
:10184000194E0760194B1A4826602A441B68046821
:101850008A63184AA342116838BF0360164C1748C0
:10186000174D8B4288BF1360266801682A6833448D
:101870000131013A2360016002D42A60F0BC704754
:1018800040F2F11145F6C1220E4B29601A60F0BCFE
:10189000704700BF040400203C240140082401409C
:1018A00003F82E00000801402222220224000040FA
:1018B0007400002000020020000400201402002018
:1018C000040200204400024000000000000000006C
:1018D000F0B41149114A4D6B12681148114F124C66
:1018E000124E134B07602A44266012481B684A6355
:1018F000114A04681168A34238BF03608B420F4845
:101900000F4988BF136004680A68234401320360EA
:101910000A60F0BC704700BF040400203C24014072
:101920000824014003F82E00000801402222222052
:101930002400004074000020000200200004002069
:101940001402002000000000000000000000000061
:10195000F0B41149114A0D6B12681148114F124C25
:10196000124E134B07602A44266012481B680A6314
:10197000114A04681168A34238BF03608B420F48C4
:101980000F4988BF136004680A682344013203606A
:101990000A60F0BC704700BF040400203C240140F2
:1019A0000824014003F82E000008014022220222F0
:1019B00024000040740000200002002000040020E9
:1019C00014020020000000000000000000000000E1
:1019D000F0B41149114ACD6A12681148114F124CE6
:1019E000124E134B07602A44266012481B68CA62D5
:1019F000114A04681168A34238BF03608B420F4844
:101A00000F4988BF136004680A68234401320360E9
:101A10000A60F0BC704700BF040400203C24014071
:101A20000824014003F82E00000801402222202251
:101A30002400004074000020000200200004002068
:101A40001402002000000000000000000000000060
:101A5000F0B41149114A8D6A12681148114F124CA5
:101A6000124E134B07602A44266012481B688A6294
:101A7000114A04681168A34238BF03608B420F48C3
:101A80000F4988BF136004680A6823440132036069
:101A90000A60F0BC704700BF040400203C240140F1
:101AA0000824014003F82E000008014022022222EF
:101AB00024000040740000200002002000040020E8
:101AC00014020020000000000000000000000000E0
:101AD000F0B41149114A4D6A12681148114F124C65
:101AE000124E134B07602A44266012481B684A6254
:101AF000114A04681168A34238BF03608B420F4843
:101B00000F4988BF136004680A68234401320360E8
:101B10000A60F0BC704700BF040400203C24014070
:101B20000824014003F82E00000801402220222250
:101B30002400004074000020000200200004002067
:101B4000140200200000000000000000000000005F
:101B5000F0B41149114A0D6A12681148114F124C24
:101B6000124E134B07602A44266012481B680A6213
:101B7000114A04681168A34238BF03608B420F48C2
:101B80000F4988BF136004680A6823440132036068
:101B90000A60F0BC704700BF040400203C240140F0
:101BA0000824014003F82E000008014002222222EE
:101BB00024000040740000200002002000040020E7
:101BC00014020020000000000000000000000000DF
:101BD000F0B41149114ACD6B12681148114F124CE3
:101BE000124E134B07602A44266012481B68CA63D2
:101BF000114A04681168A34238BF03608B420F4842
:101C00000F4988BF136004680A68234401320360E7
:101C10000A60F0BC704700BF040400203C2401406F
:101C20000824014003F82E0000080140202222224F
:101C30002400004074000020000200200004002066
:101C4000140200200000000000000000000000005E
:101C5000014B1B68184700BF5000002038B50D46E7
:101C6000C478A421114800F0FFFD2A4621461048FF
:101C700002F06AFFA4F1E003072B204603D88DB1E0
:101C800000F07CFE02E055B900F042FE094C2378DA
:101C900023B1094801F0A8F80023237038BD00F0F3
:101CA00001FEF3E700F08EFEF0E700BF7C6C000859
:101CB000A86C00082A0200206404002038B50446FD
:101CC000FEF760FA054604EBC404E400FEF75AFA96
:101CD000401B8442FAD838BD08B5FFF74BF8012005
:101CE000FEF73AFC40F20230FEF764FC40F20330AB
:101CF000FEF760FC4FF44170FEF75CFC4FF440705F
:101D0000FEF758FC4FF46070FEF754FC40F20930C7
:101D1000FEF750FC0748FEF7EDFA40F28910FEF797
:101D200027FC0020FFF71CF8BDE808404FF42070A6
:101D3000FEF740BC0024014070B5254D0022284626
:101D40001146FF23FEF7C6FF224928460A684FF4D2
:101D5000807342F0FF020A6000220221FEF7BAFF00
:101D60001D4C28464FF48071FEF700FC00222046EF
:101D700011460223FEF7AEFF204604230022022173
:101D8000FEF7A8FF2046012300220221FEF7A2FF52
:101D9000124928460A684FF4784342F004020A6068
:101DA0000D68022225F001050D600021FEF792FF6B
:101DB00020464FF6F87302220021FEF78BFFBDE8A4
:101DC00070404FF46043022200210548FEF782BFB5
:101DD000000801400C080140000C01400C0C0140BF
:101DE0000010014070B5064640F20E30FEF7E2FBEF
:101DF0001B4D40F20230FEF7DDFB0222194C284653
:101E000011464FF40073FEF765FF4FF48063012223
:101E100028460021FEF75EFF31462046FEF7C8FE49
:101E200020460821FEF7D8FE20460021FEF7DEFE00
:101E300020460021FEF7E0FE20460021FEF7E8FEE6
:101E400020460C21FEF7DEFE2046FEF7E7FEBDE849
:101E50007040054B00211B68986802F003BF00BF6B
:101E60000008014000380140FC00002008B501F0E6
:101E700013F8024B01221A6008BD00BF10020020B7
:101E8000FFF7F4BF38B51D4C1D4D20460421FEF769
:101E9000A9FA20462A460421FEF742FB20464FF4C9
:101EA00000720421FEF7DAFA20460421FEF7F8FA60
:101EB000A5F1200220460421FEF73CFB20464FF40A
:101EC00000620421FEF7BCFA20460421FEF7D4FA92
:101ED000204610220421FEF737FB20460421FEF79E
:101EE00001FB204604214FF48052FEF79BFA204666
:101EF000BDE838400421FEF787BA00BF0000024069
:101F00002404002010B51E4C02212046FEF76AFA78
:101F100020461C4A0221FEF70DFB20464FF40062CA
:101F20000221FEF78DFA20460221FEF7A5FA20468F
:101F3000154A0221FEF7F4FA20464FF400720221FE
:101F4000FEF78CFA20460221FEF7B4FA204608225A
:101F50000221FEF7F9FA20460221FEF7CDFA2046CB
:101F60004FF480520221FEF75DFA20460221FEF76F
:101F7000ABFA2046BDE810400221FEF7C7BA00BF09
:101F800000000240540000203824014010B51E4CCF
:101F900007212046FEF726FA20461C4A0721FEF7B5
:101FA000C9FA20464FF400620721FEF749FA20469D
:101FB0000721FEF76BFA2046154A0721FEF7B0FA13
:101FC00020464FF400720721FEF748FA2046072109
:101FD000FEF770FA204601220721FEF7B5FA2046E7
:101FE0000721FEF789FA20464FF480520721FEF7B9
:101FF00019FA20460721FEF767FA2046BDE810408F
:102000000721FEF783BA00BF00000240080200204B
:102010001000004010B51E4C05212046FEF7E2F9E5
:1020200020461C4A0521FEF785FA20464FF400623F
:102030000521FEF705FA20460521FEF727FA20467E
:10204000154A0521FEF76CFA20464FF4007205216F
:10205000FEF704FA20460521FEF72CFA204601225D
:102060000521FEF771FA20460521FEF745FA2046C4
:102070004FF480520521FEF7D5F920460521FEF7E1
:1020800023FA2046BDE810400521FEF73FBA00BF05
:10209000000002402C0000200008014010B51E4C3A
:1020A00001212046FEF79EF920461C4A0121FEF739
:1020B00041FA20464FF400620121FEF7C1F92046A3
:1020C0000121FEF7D9F92046154A0121FEF728FA29
:1020D00020464FF400720121FEF7C0F9204601218D
:1020E000FEF7E8F9204608220121FEF72DFA2046E6
:1020F0000121FEF701FA20464FF480520121FEF73C
:1021000091F920460121FEF7DFF92046BDE8104095
:102110000121FEF7FBB900BF0000024030000020A3
:102120005000002010B5002082B0FEF785FD1E484B
:10213000FEF7E6F8092302AA02F8083D01211A4831
:10214000FEF7EAF807229DF800101748FEF7A4FDF5
:102150004FF460211448FEF777FD1348FEF7D6F8D8
:10216000002402AA02F8044D01210F48FEF712F9DB
:10217000E1B200220C480134FEF78EFD082CF7D1A5
:102180004FF4E0410848FEF769FD0748FEF74CFDB3
:102190000548FEF76DFD0448FEF774FD0248FEF7A2
:1021A00017F902B010BD00BF0024014008B54FF47C
:1021B0004070FEF70FF81C20FDF7EEFF00211C20F9
:1021C000FDF7F8FF1420FDF7E7FF40211420FDF78D
:1021D000F1FF2A20FDF7E0FFBDE8084050212A204A
:1021E000FDF7E8BF40F2671070B51449144B154D68
:1021F000154CC82200262E6008601A602368134A16
:1022000043F400730A21236011602368042143F41E
:10221000806323604FF08040FEF7C6FC0C4BC92260
:102220001A6023684FF0804243F400632360236800
:10223000012143F480732360116070BD2C000040C5
:1022400034000040280000400C00004038000040EE
:102250003C000040000000004A4A13689804FCD586
:102260002DE9F04F45F6C024474D4848484B4FF400
:1022700000561021434A2E60ADB004601960136807
:102280009904FCD545F6C026DFF8FC903F4F404D41
:102290004FF400581024C9F8008040223E6000210D
:1022A0002C600CA801F0D7FF002319461CA840227F
:1022B0000093CDF81890CDF81C80089709960A95E0
:1022C0000B9401F0C8FF009BDFF8B8A002934FF415
:1022D000007303932F4B0493DAF8003013F4005388
:1022E00040F07F81DAF8002001339204FAD5049A95
:1022F0009A4228BF1A460492009A06999A4238BF19
:102300001A4608460799009201600299DFF8888012
:102310001944089B02911946099B42460B600A9B8F
:1023200008F1200118460B9B4FF00009036052F89A
:10233000043F91429944FAD10AAB9E461F46164E7D
:1023400005931CAD002456F8043FF7E9020110EB99
:10235000030B41EBE37CD5E90012C3FB03121346E8
:102360000A460134082CEEE902BCE5E80223EAD172
:102370000A4C49F69F3B46F6F046002504F120073B
:1023800015E000BF0000024004000240440002408B
:102390004800024080841E00000400200C00002041
:1023A000B34240F31081D5B20434A74215D058F897
:1023B000043F6A1C5B45F3DD20460121FFF74EFC1C
:1023C0008F4B8F4A1B684FF47A7043F004031360FD
:1023D0000434FFF773FCA742E9D1082D00F0FA801E
:1023E000884800F0F7FC00F009FD0146864802F03D
:1023F000ABFB039B013B03937FF46EAF029B8349CE
:102400009B0AA1FB0331824802F09EFB049B814C96
:102410005908A4FB01318048C90902F095FB009BD3
:102420007E485908A4FB0131C90902F08DFB7C4BA1
:102430007C4E1B68D6E900125B1ACC1842F10005ED
:10244000C6E90045482200232046294601F062FDE6
:10245000C8468146744C1AAD2068AB46C0EB0900F3
:1024600000F084FF60A3D3E90023C4F8009006467F
:102470000F4601F01BF902460B466C4802F064FB64
:102480005BA1D1E9000132463B4601F00FF901F0B2
:1024900093FA00F08DFF02460B46654802F054FBAC
:1024A0004146644802F050FB404600F06FFF52A3E3
:1024B000D3E9002301F0FAF802460B465E4802F029
:1024C00043FB5E4802F0C6FBDFF8A8A1059EF6E9D3
:1024D000020100F093FF0022594BCDE9000100F00A
:1024E000BBFF01F069FA0446F5E9020100F07EFF46
:1024F00000224FF0814300F0AFFFDDE9002380466A
:1025000089461046194600F0A7FF02460B46404692
:10251000494600F0EDFD21F00043194600F0C2FCF1
:102520000022474B00F098FF01F046FA07465AF8A0
:10253000040F404201F04AFB424901F04FFC00F019
:1025400037FF02460B46404802F0FEFA3D4920465E
:1025500001F044FC00F02CFF02460B463B4802F021
:10256000F3FA3849384601F039FC00F021FF024601
:102570000B46364802F0E8FA394624F0004001F0F4
:102580002DFC00F015FF02460B46314802F0DCFA44
:10259000B3459CD12F4A304B11681B682F48B1FBC3
:1025A000F3F102F0D1FA2E4B2E48196802F0CCFA62
:1025B0002D4B2E48196802F0C7FA2D482DB0BDE802
:1025C000F04F02F047BB002120460135FFF746FBE4
:1025D000EDB2E9E60A4B0A4A1B6823F004031360D4
:1025E000FEE60023049387E60000000080842E416D
:1025F000000000008084BE41000000000020DF4099
:102600000C0C014084040020B86C000864320701FF
:10261000C86C000853309983DC6C0008E86C000833
:10262000041000E0180200200C020020F46C0008E6
:10263000FC6C0008046D00080C6D00088C6D00082F
:102640000000603F00007945146D00081C6D000813
:10265000246D000800040020140200202C6D0008E6
:10266000740000203C6D0008000200204C6D000842
:102670005C6D0008400400202DE9F04F45F6C02EA7
:10268000364B0021364A374F374E384D196459645E
:102690009964D964196559659965D96591B00A211C
:1026A0004FF40054102013689B04FCD501393C60A2
:1026B000C6F800E02860F6D145F6C02940226846F9
:1026C00001F0C9FD264DDFF89C80DFF89CC0DFF8E3
:1026D0009CA04FF480670EAE4FF4005B2B689B0408
:1026E000FCD5ADF1080E73461022214CC8F800B09D
:1026F000CCF80090CAF8002054F8042FF3E9020146
:10270000801841EBE2719E42C3E90001F4D1013F20
:10271000E4D1184C2246FEE9020110F5007041F1A7
:102720000001830A43EA81535B42764542F8043F45
:10273000F1D1114E114D54F8043F114885FB03129D
:10274000D9171344A1EBE32102F0FEF9A642F2D11E
:102750000A2011B0BDE8F04F02F00EBA04040020C8
:1027600000000240040002404400024048000240D1
:1027700000040020400400206004002053309983AE
:10278000A06D0008F8B500242546FDF7E1FC00F037
:102790004FF8FFF7A1FAFFF7CFFA184B18481C7053
:1027A000184FFFF71FFB00F02FFBFFF76BFBFFF746
:1027B000A9FBFFF7EBFBFFF72DFCFFF76FFCFFF723
:1027C000B1FCFFF70FFDFFF7F1FCFFF755FF0E48D7
:1027D0000E490F4B0F4A104E3C6004600C601A60AB
:1027E000294656F8042F0D48013502F0ADF9082DA1
:1027F000F6D1FFF731FDFFF72FFDFAE75007002074
:1028000090D00300000200200004002014020020E9
:102810007400002040420F002C000020A86D00082A
:10282000024A136801331360704700BF2002002082
:1028300008B50A4B0A481B68A0FB03308009FDF766
:10284000D3FC084B00221A600420FDF7D5FCFDF7ED
:10285000E7FCBDE80840FDF7DBBC00BF000000203E
:10286000D34D621018E000E0704700BF0048704789
:1028700024020020A0F10100B0FA80F0014B4009D1
:102880001870704729020020004870472902002074
:10289000004870478404002000487047640400200A
:1028A000704700BF144B1B7823B1031FDBB2DA085B
:1028B0001B2A11D91149002311F8012F2AB1904286
:1028C00003D00133062BF7D170470D490D4A0B4455
:1028D000012198701170704710B40B4901200A440F
:1028E000517803F0070300FA03F3084C0B435370CD
:1028F000207010BC704700BF290200208504002012
:10290000840400202B020020640400202A020020FE
:10291000144B1B7823B1031FDBB2DA081B2A09D939
:10292000114A002312F8011F814213D00133062BF4
:10293000F8D1704710B40D4901200A44517803F0D2
:10294000070300FA03F30A4C21EA030353702070D3
:1029500010BC70470749084A0B44002001219870B9
:1029600011707047290200208504002064040020B3
:102970002A020020840400202B02002070B40C4D99
:102980000C4C00F0070001210B4E2A78237801FA45
:1029900000F040B23678024318432A7020701EB906
:1029A000064B197070BC7047054B197070BC7047AE
:1029B0008404002064040020290200202B0200204F
:1029C0002A02002000F00700012101FA00F0C043B4
:1029D00070B40A4D0A4C0B4E2A78237840B23678F0
:1029E000024018402A7020701EB9074B197070BC45
:1029F0007047064B197070BC704700BF84040020FC
:102A000064040020290200202B0200202A0200205A
:102A10000048704730020020002A2FDDF0B4C36860
:102A200046685C1CB4FBF6F506FB15458668B542A6
:102A300021D00F460D7800260168C460CD54C368CC
:102A400041680136B3FBF1F401FB1433B24203F1E8
:102A50000104C3600CD0B4FBF1F501FB154185689E
:102A6000A94202D017F8015FE6E77042F0BC704758
:102A70001046F0BC70470020F0BC70470020704743
:102A800038B504460D460A460C482146FFF7C4FFF8
:102A90001CB115B123786E2B06D0094B0948197863
:102AA000BDE8384002F050B8054B0648197881F06F
:102AB00001011970BDE8384002F046B83802002024
:102AC000290200204C6F0008024A1368013313608A
:102AD000704700BF4802002008B54FF45E710648F9
:102AE000FFF7C2FE054802F0B5F80549054A002384
:102AF0000B70137008BD00BF5071000864710008AE
:102B0000500700202C02002008B540F26231064830
:102B1000FFF7AAFE054802F09DF80549054A012382
:102B20000B70137008BD00BF507100087071000871
:102B3000500700202C02002008B540F25B31064807
:102B4000FFF792FE054802F085F80549054A002383
:102B50000B70137008BD00BF507100087C71000835
:102B6000500700202C02002030B5044683B0002519
:102B70000095082303228121FEF700FA20460095E4
:102B8000082303228221FEF7F9F920460095082345
:102B900003228321FEF7F2F9204600952023032229
:102BA0008421FEF7EBF90F4B2046009302222023ED
:102BB0000721FEF7E3F920460095402302228621F3
:102BC000FEF7DCF920460095102303228521FEF74D
:102BD000D5F92046044B1F22012103B0BDE8304047
:102BE000FEF7A8BAB92D0008ED2B00084878062892
:102BF00016D0012838B51D46144618D009281DD016
:102C000002283BD00A2830D003283ED00B2800F001
:102C1000B18000F0FD00202800F08680022038BD41
:102C20004888000A222800F08580022070478B889F
:102C3000032BF3D8DFE803F03B4249348B880BB118
:102C4000032BEBD1002D00F0A0802B88002B00F08F
:102C50009C80002C00F099802368002B00F0958068
:102C60001878FFF71DFE012038BD4B888A881B0AA3
:102C7000032AD3D8DFE802F048504C548B88032B4A
:102C8000CCD8DFE803F03B352F298B880BB1032B21
:102C9000C4D1FFF7F9FD012320602B80184638BD11
:102CA000FFF7FAFD1D2320602B80012038BDFFF7C0
:102CB000EFFD082320602B80012038BDFFF7A8FE20
:102CC000052320602B80012038BDFFF7CFFD0323B3
:102CD00020602B80012038BD2D4A012322602B80EB
:102CE000184638BD2B4A012322602B80184638BD78
:102CF000294A012322602B80184638BD274A012328
:102D000022602B80184638BD244A0120137038BD3C
:102D1000204A0120137038BD1F4A0120137038BDAE
:102D20001B4A0120137038BD1D4A1E4B0120107034
:102D3000187038BD898803293FF677AFDFE801F0C6
:102D4000140E0802184839211060012019807047BC
:102D500016483621106001201980704714484D2113
:102D6000106001201980704712483F211060012037
:102D7000198070478B8813B1032B7FF44FAF4888BD
:102D8000C0B2FFF777FD012038BD012038BD00BF7C
:102D900028020020270200202E0200202D02002001
:102DA000500700202C0200209072000818710008C3
:102DB000906F0008F86F000800B589B06A462023BC
:102DC0000721FEF7EBF801466846FFF759FE09B008
:102DD0005DF804FB03490246082308680121FEF759
:102DE000D5B800BF4C020020034902461D230868E5
:102DF0000421FEF7CBB800BF4C020020014B18683D
:102E0000704700BF4802002030B51848184D85B003
:102E10004FF4807108222B460190029100921549CF
:102E2000154A1648FEF752F8154C16492060FEF771
:102E30009BFC20681449FEF777F820681349FEF7D9
:102E400077F820681249FEF775F812492068FEF7F6
:102E50006DF8286801F0FEFE686801F0FBFEA868C6
:102E600005B0BDE8304001F0F5BE00BF58070020B6
:102E70007800002064720008806F0008F06B000882
:102E80004C020020692B0008392B0008092B000890
:102E9000C92A0008D92A0008014B1868FEF76AB849
:102EA0004C0200202DE9F04F8BB004460D4600F097
:102EB00055F8284B064693F900A00F46BAF1FF3F9C
:102EC00012D022462B462046294600F05FFD83465D
:102ED00050B94FF000084FF00009204629464246FD
:102EE0004B4600F02BFD20B9304639460BB0BDE80B
:102EF000F08F194A0123CDF820B0CDE90445CDE982
:102F0000024501920093BAF1000F15D042464B469C
:102F10004046494600F0CAFBBAF1020FCDE906016E
:102F20000CD101F087F921230360089B63B9DDE927
:102F300006010BB0BDE8F08FCDE90689684600F0C8
:102F4000D1F80028F1D1ECE701F074F9089B036097
:102F5000EDE700BF98000020CC7200082DE9F04199
:102F60005F4E0C46B6460E407645054600F098800A
:102F700000290B46024674DD5FEA215E7FD0AEF287
:102F8000FF3EC3F313031EF0010F43F4801363D11C
:102F900000273E4603EBD2710B444FEA6E0E5200FF
:102FA00016204FF4001174189C424FEAD2754FEA74
:102FB000420202DC1B1B66180F44013805EB430379
:102FC0004FEA5101EFD1844620244FF0004109E03F
:102FD00020D003EBD275013C4FEA51012B444FEA5C
:102FE000420220D09E4201EB0C05F1DA002D05EBE8
:102FF000010C09DBB0469542A3EB060300D9013B67
:103000004646521B0844E4E7BCF1000FF2DB06F130
:103010000108F0E7954217D8002D05EB010C49DBBC
:1030200098460023ECE7134310D140087B1003F1CE
:103030007F5303F50013FA0703EB0E57394648BFD9
:1030400040F00040BDE8F0813346C2E7411C35D076
:1030500000F001031844E8E75B0003EBD273520071
:1030600096E721F000460643ECD079BB8E46D30AA2
:10307000AEF1150E5205002BF9D0DD0221D400214E
:1030800000E001465B00DC0201F10100F9D5C0F16E
:10309000200422FA04F42343C1EB0E0E82406EE7B3
:1030A00002460B4600F0D8F92A46234600F022F8E3
:1030B000BDE8F081BCF1000FA9DAB1E70137204685
:1030C000B4E720244FF0FF310020E2E702460B4630
:1030D00000F00EF802460B4600F0E8FAB2E700BF37
:1030E0000000F07F0020704781F0004102E000BF47
:1030F00083F0004330B54FEA41044FEA430594EAB8
:10310000050F08BF90EA020F1FBF54EA000C55EAF2
:10311000020C7FEA645C7FEA655C00F0E2804FEAC3
:103120005454D4EB5555B8BF6D420CDD2C4480EAA5
:10313000020281EA030382EA000083EA010180EAD5
:10314000020281EA0303362D88BF30BD11F0004F23
:103150004FEA01314FF4801C4CEA113102D0404259
:1031600061EB410113F0004F4FEA03334CEA133394
:1031700002D0524263EB430394EA050F00F0A780AC
:10318000A4F10104D5F1200E0DDB02FA0EFC22FAA7
:1031900005F2801841F1000103FA0EF2801843FA9B
:1031A00005F359410EE0A5F120050EF1200E012A8C
:1031B00003FA0EFC28BF4CF0020C43FA05F3C018CA
:1031C00051EBE37101F0004507D54FF0000EDCF143
:1031D000000C7EEB00006EEB0101B1F5801F1BD3EC
:1031E000B1F5001F0CD349085FEA30004FEA3C0CF0
:1031F00004F101044FEA445212F5800F80F09A80E6
:10320000BCF1004F08BF5FEA500C50F1000041EBE9
:10321000045141EA050130BD5FEA4C0C404141EBED
:10322000010111F4801FA4F10104E9D191F0000F14
:1032300004BF01460020B1FA81F308BF2033A3F197
:103240000B03B3F120020CDA0C3208DD02F1140C8E
:10325000C2F10C0201FA0CF021FA02F10CE002F1C9
:103260001402D8BFC2F1200C01FA02F120FA0CFCC2
:10327000DCBF41EA0C019040E41AA2BF01EB04510B
:10328000294330BD6FEA04041F3C1CDA0C340EDC09
:1032900004F11404C4F1200220FA04F001FA02F34C
:1032A00040EA030021FA04F345EA030130BDC4F10A
:1032B0000C04C4F1200220FA02F001FA04F340EAFF
:1032C0000300294630BD21FA04F0294630BD94F0B0
:1032D000000F83F4801306BF81F480110134013D97
:1032E0004EE77FEA645C18BF7FEA655C29D094EA08
:1032F000050F08BF90EA020F05D054EA000C04BF86
:103300001946104630BD91EA030F1EBF0021002070
:1033100030BD5FEA545C05D14000494128BF41F00F
:10332000004130BD14F580043CBF01F5801130BD73
:1033300001F0004545F0FE4141F470014FF00000FE
:1033400030BD7FEA645C1ABF194610467FEA655CAF
:103350001CBF0B46024650EA013406BF52EA033551
:1033600091EA030F41F4002130BD00BF90F0000F3F
:1033700004BF0021704730B54FF4806404F132047B
:103380004FF000054FF0000150E700BF90F0000F34
:1033900004BF0021704730B54FF4806404F132045B
:1033A00010F0004548BF40424FF000013EE700BF2B
:1033B00042004FEAE2014FEA31014FEA02701FBFBB
:1033C00012F07F4393F07F4F81F06051704792F08D
:1033D000000F14BF93F07F4F704730B54FF4607407
:1033E00001F0004521F0004120E700BF50EA010252
:1033F00008BF704730B54FF000050AE050EA0102FF
:1034000008BF704730B511F0004502D5404261EB6E
:1034100041014FF4806404F132045FEA915C3FF4AF
:10342000DCAE4FF003025FEADC0C18BF03325FEA48
:10343000DC0C18BF033202EBDC02C2F1200300FAFD
:1034400003FC20FA02F001FA03FE40EA0E0021FA22
:1034500002F11444C1E600BF70B54FF0FF0C4CF40C
:10346000E06C1CEA11541DBF1CEA135594EA0C0FC2
:1034700095EA0C0F00F0DEF82C4481EA030621EAFD
:103480004C5123EA4C5350EA013518BF52EA033538
:1034900041F4801143F4801338D0A0FB02CE4FF0EA
:1034A0000005E1FB02E506F00042E0FB03E54FF01A
:1034B0000006E1FB03569CF0000F18BF4EF0010E12
:1034C000A4F1FF04B6F5007F64F5407404D25FEA0E
:1034D0004E0E6D4146EB060642EAC62141EA5551C1
:1034E0004FEAC52040EA5E504FEACE2EB4F1FD0C03
:1034F00088BFBCF5E06F1ED8BEF1004F08BF5FEA81
:10350000500E50F1000041EB045170BD06F0004632
:1035100046EA010140EA020081EA0301B4EB5C04DF
:10352000C2BFD4EB0C0541EA045170BD41F48011D7
:103530004FF0000E013C00F3AB8014F1360FDEBFFC
:10354000002001F0004170BDC4F10004203C35DAD8
:103550000C341BDC04F11404C4F1200500FA05F35B
:1035600020FA04F001FA05F240EA020001F00042FC
:1035700021F0004110EBD37021FA04F642EB060172
:103580005EEA430E08BF20EAD37070BDC4F10C049C
:10359000C4F1200500FA04F320FA05F001FA04F260
:1035A00040EA020001F0004110EBD37041F100014C
:1035B0005EEA430E08BF20EAD37070BDC4F1200557
:1035C00000FA05F24EEA020E20FA04F301FA05F2BF
:1035D00043EA020321FA04F001F0004121FA04F267
:1035E00020EA020000EBD3705EEA430E08BF20EA37
:1035F000D37070BD94F0000F0FD101F00046400071
:1036000041EB010111F4801F08BF013CF7D041EAF2
:10361000060195F0000F18BF704703F000465200F6
:1036200043EB030313F4801F08BF013DF7D043EAC7
:103630000603704794EA0C0F0CEA135518BF95EA7D
:103640000C0F0CD050EA410618BF52EA4306D1D104
:1036500081EA030101F000414FF0000070BD50EA23
:10366000410606BF1046194652EA430619D094EAAD
:103670000C0F02D150EA013613D195EA0C0F05D197
:1036800052EA03361CBF104619460AD181EA0301EB
:1036900001F0004141F0FE4141F470014FF00000A3
:1036A00070BD41F0FE4141F4780170BD70B54FF03E
:1036B000FF0C4CF4E06C1CEA11541DBF1CEA1355BE
:1036C00094EA0C0F95EA0C0F00F0A7F8A4EB0504A0
:1036D00081EA030E52EA03354FEA013100F0888097
:1036E0004FEA03334FF0805545EA131343EA126360
:1036F0004FEA022245EA111545EA10654FEA002615
:103700000EF000419D4208BF964244F1FD0404F5CD
:10371000407402D25B084FEA3202B61A65EB030529
:103720005B084FEA32024FF480104FF4002CB6EBE6
:10373000020E75EB030E22BFB61A754640EA0C0066
:103740005B084FEA3202B6EB020E75EB030E22BFA6
:10375000B61A754640EA5C005B084FEA3202B6EBE7
:10376000020E75EB030E22BFB61A754640EA9C00A6
:103770005B084FEA3202B6EB020E75EB030E22BF76
:10378000B61A754640EADC0055EA060E18D04FEA34
:10379000051545EA16754FEA06164FEAC30343EAD4
:1037A00052734FEAC2025FEA1C1CC0D111F4801FA1
:1037B0000BD141EA00014FF000004FF0004CB6E79A
:1037C00011F4801F04BF01430020B4F1FD0C88BF39
:1037D000BCF5E06F3FF6AFAEB5EB030C04BFB6EB44
:1037E000020C5FEA500C50F1000041EB045170BD37
:1037F0000EF0004E4EEA113114EB5C04C2BFD4EB64
:103800000C0541EA045170BD41F480114FF0000EE7
:10381000013C90E645EA060E8DE60CEA135594EA63
:103820000C0F08BF95EA0C0F3FF43BAF94EA0C0F66
:103830000AD150EA01347FF434AF95EA0C0F7FF4DB
:1038400025AF104619462CE795EA0C0F06D152EA2F
:1038500003353FF4FDAE1046194622E750EA410613
:1038600018BF52EA43067FF4C5AE50EA41047FF424
:103870000DAF52EA43057FF4EBAE12E74FF0FF3C89
:1038800006E000BF4FF0010C02E000BF4FF0010C5A
:103890004DF804CD4FEA410C7FEA6C5C4FEA430CD3
:1038A00018BF7FEA6C5C1BD001B050EA410C0CBF22
:1038B00052EA430C91EA030F02BF90EA020F002084
:1038C000704710F1000F91EA030F58BF994208BFEB
:1038D00090422CBFD8176FEAE37040F001007047A8
:1038E0004FEA410C7FEA6C5C02D150EA013C07D1FF
:1038F0004FEA430C7FEA6C5CD6D152EA033CD3D04A
:103900005DF8040B704700BF8446104662468C4643
:103910001946634600E000BF01B5FFF7B7FF002876
:1039200048BF10F1000F01BD4DF808EDFFF7F4FF9F
:103930000CBF012000205DF808FB00BF4DF808ED2A
:10394000FFF7EAFF34BF012000205DF808FB00BF4D
:103950004DF808EDFFF7E0FF94BF012000205DF86F
:1039600008FB00BF4DF808EDFFF7CEFF94BF012024
:1039700000205DF808FB00BF4DF808EDFFF7C4FF1D
:1039800034BF012000205DF808FB00BF4FEA410C66
:103990007FEA6C5C02D150EA013C0AD14FEA430C49
:1039A0007FEA6C5C02D152EA033C02D14FF0000086
:1039B00070474FF0010070474FEA4102B2F1E04317
:1039C00024BFB3F5001CDCF1FE5C0DD901F0004C06
:1039D0004FEAC0024CEA5070B2F1004F40EB830056
:1039E00008BF20F00100704711F0804F21D113F182
:1039F0003872BCBF01F00040704741F480114FEABB
:103A00005252C2F11802C2F1200C10FA0CF320FA43
:103A100002F018BF40F001004FEAC1234FEAD32360
:103A200003FA0CFC40EA0C0023FA02F34FEA4303CA
:103A3000CCE77FEA625307D150EA01331EBF4FF053
:103A4000FE4040F44000704701F0004040F0FE406E
:103A500040F40000704700BF80F0004002E000BF6B
:103A600081F0004142001FBF5FEA410392EA030F69
:103A70007FEA226C7FEA236C6AD04FEA1262D2EBB3
:103A80001363C1BFD218414048404140B8BF5B42B8
:103A9000192B88BF704710F0004F40F4000020F051
:103AA0007F4018BF404211F0004F41F4000121F067
:103AB0007F4118BF494292EA030F3FD0A2F10102B1
:103AC00041FA03FC10EB0C00C3F1200301FA03F1EF
:103AD00000F0004302D5494260EB4000B0F5000F12
:103AE00013D3B0F1807F06D340084FEA310102F1D1
:103AF0000102FE2A51D2B1F1004F40EBC25008BF83
:103B000020F0010040EA03007047490040EB00004C
:103B100010F4000FA2F10102EDD1B0FA80FCACF17B
:103B2000080CB2EB0C0200FA0CF0AABF00EBC2507A
:103B300052421843BCBFD0401843704792F0000F68
:103B400081F4000106BF80F400000132013BB5E7BB
:103B50004FEA41037FEA226C18BF7FEA236C21D031
:103B600092EA030F04D092F0000F08BF0846704796
:103B700090EA010F1CBF0020704712F07F4F04D164
:103B8000400028BF40F00040704712F100723CBF77
:103B900000F50000704700F0004343F0FE4040F4A1
:103BA000000070477FEA226216BF08467FEA23635F
:103BB0000146420206BF5FEA412390EA010F40F44A
:103BC000800070474FF0000304E000BF10F0004396
:103BD00048BF40425FEA000C08BF704743F096437D
:103BE00001464FF000001CE050EA010208BF704798
:103BF0004FF000030AE000BF50EA010208BF70471F
:103C000011F0004302D5404261EB41015FEA010C33
:103C100002BF84460146002043F0B64308BFA3F12B
:103C20008053A3F50003BCFA8CF2083AA3EBC2530D
:103C300010DB01FA02FC634400FA02FCC2F120022C
:103C4000BCF1004F20FA02F243EB020008BF20F063
:103C50000100704702F1200201FA02FCC2F12002C9
:103C600050EA4C0021FA02F243EB020008BF20EABE
:103C7000DC7070474FF0FF0C1CEAD0521EBF1CEAEC
:103C8000D15392EA0C0F93EA0C0F6FD01A4480EADA
:103C9000010C400218BF5FEA41211ED04FF00063C3
:103CA00043EA501043EA5111A0FB01310CF00040EF
:103CB000B1F5000F3EBF490041EAD3715B0040EA15
:103CC000010062F17F02FD2A1DD8B3F1004F40EBE5
:103CD000C25008BF20F00100704790F0000F0CF0B8
:103CE000004C08BF49024CEA502040EA51207F3A7C
:103CF000C2BFD2F1FF0340EAC250704740F4000057
:103D00004FF00003013A5DDC12F1190FDCBF00F047
:103D100000407047C2F10002410021FA02F1C2F1F5
:103D2000200200FA02FC5FEA310040F1000053EA91
:103D30004C0308BF20EADC70704792F0000F00F0DF
:103D4000004C02BF400010F4000F013AF9D040EAE5
:103D50000C0093F0000F01F0004C02BF490011F479
:103D6000000F013BF9D041EA0C018FE70CEAD15377
:103D700092EA0C0F18BF93EA0C0F0AD030F0004CF7
:103D800018BF31F0004CD8D180EA010000F00040AB
:103D9000704790F0000F17BF90F0004F084691F069
:103DA000000F91F0004F14D092EA0C0F01D14202A3
:103DB0000FD193EA0C0F03D14B0218BF084608D16C
:103DC00080EA010000F0004040F0FE4040F40000B6
:103DD000704740F0FE4040F4400070474FF0FF0C49
:103DE0001CEAD0521EBF1CEAD15392EA0C0F93EA90
:103DF0000C0F69D0A2EB030280EA010C49024FEAE2
:103E0000402037D04FF0805343EA111143EA10139A
:103E10000CF000408B4238BF5B0042F17D024FF452
:103E2000000C8B4224BF5B1A40EA0C00B3EB510F2D
:103E300024BFA3EB510340EA5C00B3EB910F24BF16
:103E4000A3EB910340EA9C00B3EBD10F24BFA3EB9B
:103E5000D10340EADC001B0118BF5FEA1C1CE0D163
:103E6000FD2A3FF650AF8B4240EBC25008BF20F016
:103E7000010070470CF0004C4CEA50207F32C2BF6A
:103E8000D2F1FF0340EAC250704740F400004FF007
:103E90000003013A37E792F0000F00F0004C02BF38
:103EA000400010F4000F013AF9D040EA0C0093F002
:103EB000000F01F0004C02BF490011F4000F013B5C
:103EC000F9D041EA0C0195E70CEAD15392EA0C0FC4
:103ED00008D142027FF47DAF93EA0C0F7FF470AFFC
:103EE000084676E793EA0C0F04D14B023FF44CAF3F
:103EF00008466EE730F0004C18BF31F0004CCAD1D4
:103F000030F000427FF45CAF31F000437FF43CAF0F
:103F10005FE700BF53B94AB9002908BF00281CBF9A
:103F20004FF0FF314FF0FF3000F082B9ADF1080CD7
:103F30006DE904CE00F006F8DDF804E0DDE90223C7
:103F400004B070472DE9F04F8C460C460546099E9B
:103F5000002B4FD18A4217466BD9B2FA82FEBEF1CE
:103F6000000F0BD0CEF1200520FA05F501FA0EF373
:103F700045EA030C02FA0EF700FA0EF5390CBCFB09
:103F8000F1F0BAB201FB10C300FB02F84FEA154C86
:103F90004CEA0344A04509D9E41900F1FF3380F04D
:103FA0002881A04540F2258102383C44C8EB040436
:103FB000B4FBF1F301FB134C03FB02F2ACB244EA95
:103FC0000C418A4209D9C91903F1FF3480F00F81ED
:103FD0008A4240F20C81023B39448A1A43EA00408B
:103FE0000021002E63D022FA0EF2002386E80C0096
:103FF000BDE8F08F8B4207D9002E56D0002186E80D
:1040000011000846BDE8F08FB3FA83F1002940F0B3
:104010009380A34202D3824200F2FE80851A64EBB1
:1040200003039C460120002E41D086E82010BDE805
:10403000F08F12B90127B7FBF2F7B7FA87FEBEF18E
:10404000000F36D1E41B4FEA17481FFA87F9012108
:10405000B4FBF8F308FB134409FB03F24FEA154CD9
:104060004CEA0444A24207D9E41903F1FF3002D21A
:10407000A24200F2D3800346A41AB4FBF8F008FB76
:10408000104809FB00F9ACB244EA0842914507D94F
:10409000D21900F1FF3402D2914500F2BA802046D5
:1040A000C9EB020240EA03409BE731463046BDE8D7
:1040B000F08F07FA0EF7CEF1200C24FA0CF34FEA3A
:1040C0001748B3FBF8FA1FFA87F908FB1A3520FAEC
:1040D0000CFC04FA0EF40AFB09FB4CEA040C4FEA50
:1040E0001C4242EA05439B4500FA0EF50AD9DB194A
:1040F0000AF1FF3280F08B809B4540F28880AAF164
:10410000020A3B44CBEB0303B3FBF8F008FB10338C
:1041100000FB09F41FFA8CFC4CEA03439C4207D9CC
:10412000DB1900F1FF326ED29C426CD902383B445D
:104130001C1B40EA0A418BE7C1F1200E8B4022FA9A
:104140000EFC4CEA030C24FA0EF74FEA1C49B7FBAD
:10415000F9FA1FFA8CF309FB1A7720FA0EF88C4053
:104160000AFB03F548EA04044FEA144848EA074703
:10417000BD4202FA01F200FA01FB09D917EB0C0764
:104180000AF1FF3041D2BD423FD9AAF1020A674489
:104190007F1BB7FBF9F509FB157705FB03F3A4B209
:1041A00044EA0747BB4208D917EB0C0705F1FF307B
:1041B00027D2BB4225D9023D674445EA0A40A0FB0D
:1041C0000289FF1A4F4545464C4614D329D066B3A1
:1041D000BBEB050367EB040707FA0EFECB40CF40AD
:1041E0004EEA030386E888000021BDE8F08F2346ED
:1041F000F3E61846DAE6B8EB020569EB0C04013881
:10420000E5E70546D9E7104692E78246C0E79246C1
:1042100078E702383A4443E7084604E7023B3C4467
:104220002AE7C345E7D33C46D1E73146BDE8F08FE6
:10423000704700BF014B1868704700BFFC000020AA
:1042400010B5431E0A44914204D011F8014B03F803
:10425000014FF8E710BD03460244934202D003F831
:10426000011BFAE770472DE9F04788B0149F002B37
:104270001E461299B8BF03F1004327F02007B6BFCE
:104280001E4600232D23462F1446109DDDF84CA01A
:104290000B7003D0452F03D1013501E0032300E06B
:1042A000022307AA049206AA03928DE82804224654
:1042B000334600F0E1FE472F804602D1119BDB0719
:1042C00028D5462F08EB050911D198F80030302B7E
:1042D0000AD10022002320463146FFF725FB18B9FA
:1042E000C5F10105CAF80050DAF8003099440022FF
:1042F000002320463146FFF717FB08B9302202E0C1
:10430000CDF81C9006E0079B994503D9591C0791ED
:104310001A70F8E74046079B159AC8EB0303136031
:1043200008B0BDE8F087034673B50029B8BF49421D
:1043300003F8022BB4BF2D222B22092942701ADD6B
:104340000DF1070216460A2591FBF5F405FB141141
:10435000092C01F1300102F8011D2146F4DC303155
:10436000541E02F8011CB4421A460AD214F8012B5A
:1043700003F8012BF7E71A463024214402F8024BD8
:104380005970101A02B070BD2DE9F04F91B00C4673
:10439000DDF8688016461F46054601F07FFD03687C
:1043A0001846099300F010FD00230E93D8F8003052
:1043B0000A90073323F0070303F1080294F81890DA
:1043C000D4F800B0C8F80020D3E90023C4E91223D0
:1043D000D4F84CA0D4F848802AF000430B934FF057
:1043E000FF32A74B40460B99FFF7D0FAA0B94FF028
:1043F000FF32A34B40460B99FFF7AAFA60B900229F
:10440000002340465146FFF799FA10B12D2384F856
:1044100043309C4B9C4A0AE0424653464046514634
:10442000FFF7B4FA002800F09281984B984AB9F14E
:10443000470F8CBF90469846032323612BF004035B
:1044400023604FF0000A3DE0B9F1670F00F08A8168
:10445000B9F1470F00F08681236001936368002162
:104460000DF13302059002920093424653460691A5
:10447000CDF81090CDF80CE02846FFF7F4FE09F0D7
:10448000DF03472B804600F08481B9F1650F0D9959
:1044900000F28D8101394A4604F150000D91FFF779
:1044A00042FF0E9A82468318012A236100F37C8121
:1044B0002268D10700F178819DF8333013B12D23A4
:1044C00084F84330009733460FAA2146284600F06F
:1044D0009FF9013002D14FF0FF3096E123685A0571
:1044E00001D4236965E0B9F1650F40F2D580D4E9C4
:1044F000120100220023FFF717FA78B30123654A5F
:1045000031462846B8470130E5D00E9B0D9A9A42B5
:104510000BDB2368D80708D423689B0740F111817F
:104520004FF0000804F1190906E10A9B099A314687
:104530002846B8470130CED04FF0000804F11A09E0
:104540000E9B013B9845E7DA01234A46314628464F
:10455000B8470130BFD008F10108F1E70D9B002BEF
:1045600029DC01234B4A31462846B8470130B2D0F6
:104570000D9B23B90E9B13B92368D907CCD50A9B91
:10458000099A31462846B8470130A4D04FF00009B7
:1045900004F11A0A0D9B5B42994509DA0123524640
:1045A00031462846B847013095D009F10109F1E7B5
:1045B0000E9B4246A7E00E9AA36D9A42A8BF1A46E8
:1045C000002A914606DC4FF0000A29EAE97904F155
:1045D0001A0B11E01346314642462846B8470130CF
:1045E000F1D178E701235A4631462846B8470130D1
:1045F0003FF471AF0AF1010AA36DC9EB03029245C2
:10460000F0DB08EB03090D9A0E9B9A420FDB23683F
:10461000DA070CD40E9B0D9A9844C9EB08089B1A34
:104620009845A8BF9846B8F1000F08DC0FE00A9B38
:10463000099A31462846B8470130EBD14BE743464B
:104640004A4631462846B84701303FF444AF4FF060
:10465000000928EAE87804F11A0A09E00123524621
:1046600031462846B84701303FF435AF09F101091A
:104670000D9A0E9B9B1AC8EB03039945EEDB4BE7A3
:10468000FFFFEF7FDC720008E0720008E4720008B0
:10469000E8720008EC7200080E9A012A01DCDB07C0
:1046A00038D50123424631462846B84701303FF409
:1046B00012AF0A9B099A31462846B84701303FF4A9
:1046C0000AAFD4E9120100220023FFF72DF920B12F
:1046D0004FF0000804F11A090EE00E9B08F10102E8
:1046E000013B19E001234A4631462846B8470130CC
:1046F0003FF4F1AE08F101080E9B013B9845F1DB58
:10470000534604F1500231462846B84701307FF441
:1047100003AFE0E64246012331462846B847013060
:10472000EED1D8E601234A4631462846B847013043
:104730003FF4D1AE08F10108E3680F9A9B1A98453F
:10474000F0DBE0680F9B9842B8BF18465DE06268F6
:104750000EA8531C0DF1340E4BF480637FF474AE3D
:10476000062201E012B90122626075E6002106917D
:104770000DF133018DE80C00236005904246CDF821
:104780001090CDF80CE0029153462846FFF76BFDE0
:1047900080460D9BD81C02DB626893421DDDA9F1A7
:1047A00002095FFA89F970E60133236184E6B9F101
:1047B000660F14D10029636807DD216113B92268EF
:1047C000D2071DD501330B4419E013B92268D00775
:1047D00001D5023313E0012311E04FF067090D9B6F
:1047E0000E9A934205DB22682361D10708D5013375
:1047F00005E0002BD4BFC3F102030123134423615E
:104800000D9B4FF0000AA36556E611B0BDE8F08F8E
:104810002DE9F04791461F460A698B680646934288
:10482000B8BF1346C9F8003091F843200C46DDF8B4
:10483000208012B10133C9F800302368990642BFC5
:10484000D9F800300233C9F80030256815F00605A4
:1048500010D104F1190A07E00123524639463046C7
:10486000C04701301AD00135E368D9F800209B1AFF
:104870009D42F1DB94F843302268003318BF0123D6
:1048800092060FD5E118302081F843005A1C94F8A5
:1048900045102244023382F8431003E04FF0FF300A
:1048A000BDE8F08704F1430239463046C047013085
:1048B000F4D02268D9F80050E36802F00602042A16
:1048C00008BF5D1B2269A3680CBF25EAE5750025BA
:1048D0009342C4BF9B1AED184FF000091A344D459E
:1048E00009D00123224639463046C0470130D5D091
:1048F00009F10109F3E70020BDE8F0872DE9F04355
:1049000017460A7E85B06E2A984606460C460C9BD2
:1049100001F1430E00F0AE8011D8632A22D009D8ED
:10492000002A00F0BB80582A40F0CA8081F8452058
:10493000834955E0642A1ED0692A1CD0C0E0732A3E
:1049400000F0B08009D86F2A2ED0702A40F0B880CD
:104950000A6842F020020A603EE0752A24D0782AD4
:104960003AD0ADE01A6801F14205111D19601368D3
:1049700084F84230A8E021681A6811F0800F02D054
:10498000111D196008E011F0400F02F104011960D7
:1049900002D0B2F9003000E01368002B3CDA2D227F
:1049A0005B4284F8432037E021681A6811F0800FD9
:1049B00002D0111D196007E011F0400F02F104014F
:1049C000196001D0138800E01368227E5C496F2AC9
:1049D00014BF0A2208221BE078225A4984F8452095
:1049E0002268186812F0800F00F104051D6003D1E1
:1049F000550601D5038800E00368D00744BF42F0A4
:104A0000200222601BB9226822F0200222601022BC
:104A1000002084F8430001E049490A226568002D1E
:104A2000A56008DB206820F0040020602BB9002D71
:104A30007DD175460CE0002B79D07546B3FBF2F0C2
:104A400002FB1033CB5C05F8013D03460028F5D18D
:104A5000082A0BD12368DA0708D5236962689A42CD
:104A6000DEBF302305F8013C05F1FF35C5EB0E0331
:104A700023612EE008681A6810F0800F496903D09E
:104A8000101D1860136808E010F0400F02F10400D8
:104A90001860136801D0198000E0196000232361B9
:104AA000754616E01A68111D1960156800216268C4
:104AB000284601F05FFA08B1401B6060636804E0BB
:104AC00004F1420584F8422001232361002384F885
:104AD0004330CDF800803B4603AA21463046FFF71D
:104AE00097FE013002D14FF0FF3026E023692A46BD
:104AF00039463046C0470130F5D023689B0710D5B2
:104B0000002504F1190907E001234A4639463046D9
:104B1000C0470130E7D00135E368039A9B1A9D42F4
:104B2000F2DBE068039B9842B8BF184605E00B78BB
:104B300004F1420584F842308AE705B0BDE8F0830D
:104B4000EE720008FF7200080FB40A4B13B51C6820
:104B500024B1A36913B9204601F016F905AB049AF4
:104B6000A1682046019301F0C9FD02B0BDE81040E4
:104B700004B07047FC00002038B5084B05461C689F
:104B800024B1A36913B9204601F0FEF8A2682946B2
:104B90002046BDE8384001F0CDBE00BFFC0000203B
:104BA00070B50E46054618B183690BB901F0ECF8F3
:104BB000AB69AC6813B9284601F0E6F8224B9C4279
:104BC00001D16C6808E0214B9C4201D1AC6803E044
:104BD0001F4B9C4208BFEC68A3891B0701D52369C2
:104BE0003BB92146284600F04BF910B14FF0FF3099
:104BF00070BD013EA36816F8011F013BA36091B18F
:104C0000002B04DAA269934206DB0A2904D0236848
:104C10005A1C22601970EDE72246284600F0DCF8A5
:104C20000130E7D1E2E7002B08DA22460A212846C4
:104C300000F0D2F80130D9D00A2070BD23680A20D4
:104C40005A1C2260187070BD207300084073000861
:104C500060730008024B01461868FFF7A1BF00BF50
:104C6000FC00002000294FF480630CBF02220022C8
:104C700000F000B82DE9F7431D464F4B04461E686F
:104C80000F46904626B1B36913B9304601F07CF85F
:104C90004A4B9C4201D1746808E0494B9C4201D1C7
:104CA000B46803E0474B9C4208BFF468B8F1020FB8
:104CB00004D0B8F1010F79D8002D77DB21463046BA
:104CC00000F0F8FF616B41B104F14403994202D056
:104CD000304601F041FC002363630023A36163605D
:104CE000A3891B0603D52169304601F035FCA38951
:104CF000B8F1020F23F44A6323F00303A3811ED00B
:104D000001AB6A462146304601F0CCF8A38918432E
:104D1000A0810DB9009D00E02FBB284601F022F9CB
:104D20000746D0B9DDF80090A94502D14FF0FF3019
:104D300006E0484601F016F9074678B9F6E7002084
:104D4000A38943F00203A3810023A36004F1470376
:104D500023602361012363612AE0A9464D46A389AC
:104D600043F08003A381B36913B9304601F00CF816
:104D7000B8F1010F08BFA389276004BF43F0010306
:104D8000A381A389276103F0080080B2656158B14F
:104D900013F001034FF000001DBF6D42A060A5613C
:104DA000A56008BF184603E0A06001E04FF0FF30A7
:104DB00003B0BDE8F08300BFFC00002020730008B2
:104DC0004073000860730008034613F8012B002AA3
:104DD000FBD1181A01387047F8B50F46144606463D
:104DE00018B183690BB900F0CFFF224B9C4201D16F
:104DF000746808E0204B9C4201D1B46803E01F4B6B
:104E00009C4208BFF468A369A360A3891A0709D567
:104E100023693BB123682069FDB2181A636998427F
:104E20000FDB08E02146304600F02AF80028F1D0D8
:104E30004FF0FF30F8BD2146304600F03BFF002820
:104E4000F6D1A368013BA36023685A1C22601F703F
:104E50006269431C934204D0A389DB0707D50A2D5E
:104E600005D12146304600F025FF0028E0D1284634
:104E7000F8BD00BF2073000840730008607300088D
:104E8000324B70B51D6806460C4625B1AB6913B9A7
:104E9000284600F079FF2E4B9C4201D16C6808E057
:104EA0002C4B9C4201D1AC6803E02B4B9C4208BFC9
:104EB000EC68B4F90C309AB215071DD4D00602D4B0
:104EC000092232603AE0510712D5616B41B104F119
:104ED0004403994202D0304601F03EFB0023636355
:104EE000A38923F02403A381002363602369236043
:104EF000A38943F00803A38123694BB9A38903F471
:104F00002073B3F5007F03D02146304600F0EEFF5A
:104F1000A28912F0010305D00023A36063695B42FC
:104F2000A36103E0920758BF6369A36023695BB97B
:104F3000B4F90C3003F0800080B230B143F040038C
:104F4000A3814FF0FF3070BD002070BDFC00002039
:104F50002073000840730008607300082DE9F74FC4
:104F600003690C6980469C427FDC013C01F1140717
:104F70004FEA840E00F1140606EB0E0357F8245096
:104F8000019356F824300135B3FBF5F507EB0E0914
:104F9000C5B34FF0000A3846B446D34650F8043B38
:104FA0009AB205FB02A21B0C4FEA124A05FB03A3AF
:104FB00092B2C2EB0B0BBCF800204FEA134A5A44E2
:104FC0001FFA83FBDCF800308145CBEB134303EB86
:104FD000224392B242EA03424FEA234B4CF8042B9D
:104FE000DCD256F80E306BB9019B043B9E421A4648
:104FF00002D3C8F8104005E01268043B002AF8D13B
:10500000013CF3E7404601F0D0F900282BDB3046A5
:1050100001354FF0000E57F8042B036891B2C1EB35
:105020000E0E120C99B27144C2EB134303EB2143F1
:1050300089B24FEA234EB94541EA034340F8043BA5
:10504000E9D256F8242006EB840362B9043B9E4261
:105050001A4602D3C8F8104005E01268043B002A43
:10506000F8D1013CF3E7284600E0002003B0BDE89A
:10507000F08F0000000000002DE9F04F456A95B068
:105080008246219CCDE9022345B9102000F06AFF39
:10509000CAF82400456085600560C560DAF82430F0
:1050A000196859B15A68012393404A608B60504691
:1050B00000F0A3FFDAF8243000221A60039BA04A14
:1050C000002BBDBF01232360039B0023BCBF23F043
:1050D00000430393DDF80C80A8BF236028F0004351
:1050E0001B0D1B0593421DD142F20F73209A1360D2
:1050F000029B43B9934A944BC8F31300002814BF92
:105100001846104600E09048229B002B00F0468590
:10511000C37813B100F1080300E0C31C229A1360A6
:1051200000F03CBDDDE9024500220023204629466F
:10513000FEF7FAFB074658B1209A01231360229B21
:10514000002B00F01E8581481860013800F026BD54
:1051500012AB019313AB009322462B46504601F04D
:105160009FF9C8F30A56049056B1C5F3130343F0F0
:105170007F51204641F44011A6F2FF3611971DE001
:10518000139B129E1E4406F23243202B0ADD029A24
:1051900006F21240C3F1400322FA00F008FA03F3CA
:1051A000184304E0C3F12000029B03FA00F0FEF76D
:1051B000DDF80123A1F1F871013E11930022644B47
:1051C000FDF796FF58A3D3E90023FEF745F958A34E
:1051D000D3E90023FDF78EFF044630460D46FEF767
:1051E000D5F855A3D3E90023FEF736F902460B465E
:1051F00020462946FDF77EFF04460D4601F08EFC51
:1052000000228346002320462946FEF797FB58B12B
:105210005846FEF7BBF802460B4620462946FEF7E5
:1052200083FB08B90BF1FF3BBBF1160F0DD8DDE98D
:105230000223484901EBCB01D1E90001FEF79CFBB9
:1052400030B10BF1FF3B002300E00123109300E09D
:105250001090129B9E1B731E079343BFC3F100085F
:10526000002307934FF00008BBF1000F06DB079BFC
:10527000CDF82CB05B440793002705E00023CBEB6F
:105280000808CBF100070B931E9B092B28D8052B90
:10529000C4BF043B1E931E9BC8BF0025A3F102039D
:1052A000D8BF0125032B20D8DFE803F0060E020447
:1052B000012302E0012308E000230A931F9B002B37
:1052C0001DDD9946059321E000230A931F9B0BEBFC
:1052D000030909F10103012B0593B8BF012315E070
:1052E000012500231E930A9501E001230A934FF044
:1052F000FF390022CDF8149012231F9206E04FF0E0
:1053000001094B46CDF81490CDF87C90DAF8244092
:1053100000226260042101F114029A421CD86268E2
:10532000490001326260F6E761436F63A787D23FAD
:10533000B3C8608B288AC63FFB799F501344D33F84
:105340000000F07F1073000819730008ED72000868
:105350000000F83F887300086168504600F018FEAE
:10536000DAF8243020601B680693059B0E2B00F2B0
:105370005B81002D00F05881DDE90234BBF1000FA4
:10538000CDE90E3430DD9F4A0BF00F034FEA2B15A9
:1053900002EBC303E80618CBCDE908340CD5DDE9F0
:1053A0000E01994B05F00F05D3E90823FEF77EF9AE
:1053B0000324CDE9020100E00224934E6DB1E90718
:1053C00008D5DDE90801D6E90023FEF745F8CDE967
:1053D000080101346D100836F0E7DDE90823DDE946
:1053E0000201FEF763F920E0CBF1000505B3DDE92A
:1053F0000E01844B05F00F0203EBC203D3E9002337
:10540000FEF72AF8CDE902017F4E2D110023022478
:1054100055B1EA0705D5D6E90023FEF71DF801349A
:1054200001236D100836F3E71BB1CDE9020100E05E
:105430000224109BE3B1DDE902560022734B28469B
:105440003146FEF77BFA98B1059B8BB1B9F1000F9D
:1054500040F3E6800BF1FF330893314600226C4B9A
:105460002846FDF7F9FF0134CDE902014E4602E07E
:10547000059ECDF820B02046FDF788FFDDE9022328
:10548000FDF7EAFF634B0022FDF734FEA1F15073F4
:1054900004460C931D46D6B9DDE9020100225E4B9D
:1054A000FDF726FE22460C9BCDE90201FEF764FAC9
:1054B000002840F03F820C99224601F10043DDE9CB
:1054C0000201FEF73BFA002840F02B82A8E00A9A7E
:1054D0004C4B711E002A49D003EBC103D3E90023D2
:1054E00000204E49FEF7E2F822462B46FDF700FE6B
:1054F000CDE90C01069CDDE9020101F00FFB054638
:10550000FDF744FF02460B46DDE90201FDF7F0FD21
:10551000DDE90C23303504F8015BCDE90201FEF72B
:105520000DFA002840F01D83DDE9022300203749F1
:10553000FDF7DEFDDDE90C23FEF700FA002840F060
:10554000D180069BE31AB3426ADADDE90C0100223E
:105550002F4BFDF781FF0022CDE90C01DDE90201AF
:105560002B4BFDF779FFCDE90201C4E703EBC10145
:105570002246D1E900012B46FDF76EFF069BCDE9DF
:105580000C011D469C19DDE9020101F0C7FA06462F
:10559000FDF7FCFE02460B46DDE90201FDF7A8FD22
:1055A000303605F8016BAC42CDE902014FF0000244
:1055B00022D11A4BDDE90C01FDF79CFD02460B469A
:1055C000DDE90201FEF7D8F9002840F08B80DDE923
:1055D0000C2300201149FDF78BFD02460B46DDE947
:1055E0000201FEF7ABF9D8B114F8013C621E302B72
:1055F00040F0B7821446F7E7054BFDF72DFFCDE9E4
:105600000201C0E788730008607400080000F03FE2
:105610000000244000001C40000014400000E03F57
:10562000DDE90E34CDE90234139B002B7CDBBBF1AA
:105630000E0F79DCAB4B03EBCB03D3E900671F9B69
:10564000002B14DA059B002B11DC40F06C8100224A
:10565000A54B30463946FDF7FFFEDDE90223FEF794
:1056600081F9059D2E46002840F05F8165E1069C8A
:10567000DDE9028932463B4640464946FEF716F8C8
:1056800001F04CFA0546FDF781FE32463B46FDF738
:10569000E3FE0B46024649464046FDF729FD05F16B
:1056A000300E069B04F801EBC3EB040E059B73451B
:1056B0002DD102460B46FDF71DFD80468946024668
:1056C0000B4630463946FEF739F978B942464B4623
:1056D00030463946FEF728F9002800F04482EB07EF
:1056E00004D440E2DDF820B000E01C4614F8012CA0
:1056F000631E392A07D1069A9A42F6D106993022BA
:105700000BF1010B0A701A7801321A702BE2002299
:10571000764BFDF7A1FE0022002380468946FEF766
:1057200003F90028A6D01EE20A9A002A2BD01E9A5E
:10573000012A0ADC119A12B103F2334302E0129BF0
:10574000C3F136033D46444613E0059B5D1EAF4260
:10575000BFBF0B9BEA1B9B180B93059BB6BF2F4645
:105760007D1B0025002BA7BF4446059BC3EB080407
:105770000023079A01211A4450469844079200F0EA
:10578000DBFC064602E03D4644460A9E5CB1079BB0
:10579000002B08DDA342A8BF2346079AC3EB0808E5
:1057A000E41AD31A0793002F1DDD0A9BABB18DB10C
:1057B00031462A46504600F059FD049A01460646F5
:1057C000504600F0C2FC04990890504600F015FCC9
:1057D000089B04937A1B06D000E03A460499504691
:1057E00000F044FD04900121504600F0A5FC0B9B05
:1057F00005465BB31A460146504600F037FD1E9B36
:105800000546012B18DC029B83B9039BC3F31303EA
:1058100073B9039B23F000473F0D3F054FB1079B32
:1058200008F1010801330793012702E0002700E097
:10583000029F0B9B73B100E000272B6905EB8303EC
:10584000186900F02CFCC0F1200004E01E9B012B25
:10585000D9DD0B9F0120079B184410F01F0008D0D2
:10586000C0F12003042B02DDC0F11C0002E006D0D1
:1058700018461C30079B8044034404440793B8F146
:10588000000F05DD42460499504600F03DFD0490AE
:10589000079B002B05DD29461A46504600F034FDD3
:1058A0000546109B23B32946049800F07EFD00288E
:1058B0001EDA00230A220499504600F0B5FB0A9B29
:1058C0000BF1FF3B0490002B00F05F813146002379
:1058D0000A22504600F0A8FBB9F1000F06463FDC53
:1058E0003BE000BF88730008000014400000244023
:1058F000059B002B2BDC1E9B022B28DDDDF8149072
:10590000B9F1000F11D129464B460522504600F04F
:105910008BFB01460546049800F047FD00280CDC8F
:1059200003E0354600E000252E461F9B069C6FEAEB
:10593000030B09E03546DDF820B0069B069A5C1C97
:10594000312313700BF1010B05960026F7E00A9B3B
:10595000DDF8149023B9069CB2E01E9B022BCFDC2D
:10596000002C05DD31462246504600F0CDFC0646AF
:105970009FB17168504600F00BFB0446326906F196
:105980000C01023292000C30FEF75AFC0122214633
:10599000504600F0B9FC059000E00596029B069F7A
:1059A00003F00103079329460498FFF7D7FA31461D
:1059B000044600F13008049800F0F7FC059A0290C4
:1059C0002946504600F00DFDC36802463BB901462A
:1059D0000A90049800F0E9FC0A9A034600E00123CB
:1059E000114650460A9300F008FB0A9B53B91E9AD1
:1059F00042B9079A32B9B8F1390F2AD0029B002B6D
:105A00001CDC1DE0029A002A04DB1BD11E9ACAB9D5
:105A1000079ABAB9002B13DD01220499504600F011
:105A200073FC2946049000F0C0FC002803DC07D179
:105A300018F0010F04D0B8F1390F0AD004F1310881
:105A40007C1C0CE0002B07F101040BDDB8F1390FD1
:105A500003D139233B70013756E008F1010887F87C
:105A600000806CE0069B2746E31A4B4504F8018C46
:105A70003BD000230A220499504600F0D5FA059B3A
:105A800004909E424FF00A024FF000033146504608
:105A900004D100F0C9FA0646059084E700F0C4FA84
:105AA000002306460A220599504600F0BDFA0590EB
:105AB00079E700230A220499504600F0B5FA0490D1
:105AC00029460498FFF74AFA069B00F1300804F8CB
:105AD000018BE31A4B45ECDB069B0596B9F1010FF0
